:1000000061C000000C943E2E0C94652E83C000004D
:1000100081C000007FC000007DC000007BC00000E8
:1000200079C0000077C0000075C0000073C00000F8
:1000300071C000000C94D6296DC000006BC0000098
:100040000C948C2E67C000000C94C6310C94F831CF
:1000500061C000005FC000005DC000005BC0000028
:1000600059C0000057C00000000000080002010055
:100070000003040700000000000000000102040863
:100080001020408001020408102001020408102002
:10009000040404040404040402020202020203032E
:1000A00003030303000000002300260029000000D2
:1000B0000000250028002B0000000000240027007D
:1000C0002A001D3211241FBECFEFD8E0DEBFCDBF06
:1000D00011E0A0E0B1E0ECEDF5E602C005900D9274
:1000E000A63FB107D9F726E0A6EFB1E001C01D9207
:1000F000AE3DB207E1F710E0C2E6D0E004C02197C0
:10010000FE010E94BD32C136D107C9F70E942E2BD5
:100110000C94EC3275CFCF93DF93882349F0EB0139
:1001200081500E946C2F99838883DF91CF9108952D
:10013000FB0111821082F9CF0F931F938B019C0159
:1001400083E036952795179507958A95D1F7015045
:100150001E4F462F477021E030E0F90102C0EE0F3C
:10016000FF1F4A95E2F7AF01F80120812423CB015C
:100170000196211102C090E080E01F910F91089537
:100180000F931F938B019C0183E03695279517955C
:1001900007958A95D1F7677081E090E001C0880FDC
:1001A0006A95EAF7F801E150FE4F2081452B31F4C2
:1001B0008095822380831F910F910895822BFACF1F
:1001C000CF92DF92EF92FF92CF93DF936B017C018E
:1001D00060E08EE0C816D104E104F10490F48EE0F2
:1001E0008C0D0E940B30E6012196AE01C701B601CD
:1001F000C7DFCE01DF91CF91FF90EF90DF90CF90DE
:1002000008958C2DEECF882341F08150682F70E047
:1002100090E080E050E040E0B3CF0895611102C06B
:100220000C940B306130E1F362E0FACF662319F0F1
:1002300061E00C94473060E0FCCF0E94743021E014
:10024000019709F020E0822F0895FC01A781B08575
:100250008C9191858923A481B5819C9140815181A4
:10026000628173812681922359F081110BC04F5F07
:100270005F4F6F4F7F4F4083518362837383089535
:100280008111F5CF4150510961097109F4CF89E01D
:1002900092E0DBCF84E192E0D8CF8FE192E0D5CF3E
:1002A0008AE292E0D2CFFC01A481B5818C91968143
:1002B0008923A781B0859C9140815181628173819E
:1002C0002185922359F0882359F04F5F5F4F6F4F7C
:1002D0007F4F408351836283738308958823A9F3FA
:1002E0004150510961097109F4CF89E092E0DBCFF7
:1002F00084E192E0D8CF8FE192E0D5CF8AE292E01C
:10030000D2CF0F931F93CF93DF93082F162FEA01BD
:10031000A09108028BE0A89FD0011124A75FBD4FD8
:100320001D921D921D921C92139781E01A968C9338
:100330001A97802F90E0FC01E458FF4FE491169645
:10034000EC931697FC01E057FF4FE491F0E0EE0FBD
:10035000FF1FEC55FF4F8591949115969C938E93BA
:100360001497862F90E0FC01E458FF4FE491199612
:10037000EC931997FC01E057FF4FE491F0E0EE0F8A
:10038000FF1FEC55FF4F8591949118969C938E9387
:10039000179760E0802F0E940B3060E0812F0E9451
:1003A0000B3080910802813081F1A0F0823009F495
:1003B00045C0833009F45BC08091080291E0980F3A
:1003C00090930802888390E080E0DF91CF911F91A5
:1003D0000F91089580E0023021F08FEF033009F48F
:1003E00081E041E050E067E471E00E941E2E80E071
:1003F000123021F08FEF133009F481E041E050E03A
:1004000065E771E00E941E2ED7CF80E0023021F018
:100410008FEF033009F481E041E050E06AE471E0DD
:100420000E941E2E80E0123021F08FEF133009F46D
:1004300081E041E050E068E771E0E4CF80E0023025
:1004400021F08FEF033009F481E041E050E06DE4EA
:1004500071E00E941E2E80E0123021F08FEF1330E9
:1004600009F481E041E050E06BE771E0CBCF80E040
:10047000023021F08FEF033009F481E041E050E0D9
:1004800060E571E00E941E2E80E0123021F08FEFB7
:10049000133009F481E041E050E06EE771E0B2CF43
:1004A0009BE0899FF0011124E75FFD4F80819181DE
:1004B000A281B381FB0180839183A283B38390E007
:1004C00080E008959BE0899FF0011124E75FFD4FD4
:1004D000108211821282138290E080E0089590E0F1
:1004E00080E00895CF93282F8823E1F0CB01BA0153
:1004F000CFEFC20FEC2FF0E0EB5CFD4F20812130FD
:1005000059F490580E94942C9B01AC016C2F70E020
:1005100090E080E0CF91A2C00E948F2C8C2FCF91D1
:100520000C94872FCF9108950F931F938B019C01FB
:1005300083E036952795179507958A95D1F70A5048
:100540001E4F462F477021E030E0F90102C0EE0F48
:10055000FF1F4A95E2F7AF01F80120812423CB0168
:100560000196211102C090E080E01F910F91089543
:100570000F931F938B019C0183E036952795179568
:1005800007958A95D1F7677081E090E001C0880FE8
:100590006A95EAF7F801EA50FE4F2081452B31F4C5
:1005A0008095822380831F910F910895822BFACF2B
:1005B0004F925F926F927F928F929F92AF92BF9273
:1005C000CF92DF92EF92FF920F931F93CF93DF931F
:1005D0004B015C0129013A01670161E0882D0E940D
:1005E0000B30E4012196AE01C501B401C1DF20E06A
:1005F00030E0A901C801B6010E94722D18168CF4D2
:10060000F401EB5CFD4F81E08083C801B6010E94DC
:10061000942C6B01C301B2010E94942CA601C40169
:1006200021D0CE01DF91CF911F910F91FF90EF90DC
:10063000DF90CF90BF90AF909F908F907F906F9002
:100640005F904F900895882341F08150682F70E0AB
:1006500090E080E050E040E08BCF0895862FB90114
:100660000C94872F9C01FC01E859FF4FE491E33083
:1006700061F140F4E13011F1E23021F160E0822FCC
:100680000C944730E730C1F1E83009F441C0E43060
:10069000A9F7809180008C7F826080938000909188
:1006A0008100907E9061692B609381005093870058
:1006B000409386008091800080621BC084B5806872
:1006C00084BDDCCF84B58062FBCF809180008C7FBD
:1006D00082608093800090918100907E9061692B70
:1006E0006093810050938700409386008091800042
:1006F000806880938000C2CF8091B0008068809332
:10070000B0008091B100887F682B6093B100B6CFB4
:100710008091B0008062F3CF90E080E008950F9365
:100720001F93009709F48AC06115710509F486C00A
:1007300000911C0110911D0120911E0130911F019B
:100740000E3F1F4F2F4F3F4F09F06AC0DB014D9105
:100750005D916D917C9140931C0150931D016093BC
:100760001E0170931F0140911C0150911D01609169
:100770001E0170911F01DC011296ED91FC918081A8
:100780009181A281B3818093590390935A03A093DE
:100790005B03B0935C0384819581A681B7818093CC
:1007A000550390935603A0935703B0935803808545
:1007B0009185A285B3858093510390935203A093B2
:1007C0005303B093540384859585A685B78580939C
:1007D0004D0390934E03A0934F03B0935003109298
:1007E000490310924A0310924B0310924C030E944B
:1007F000970D8CEB9DE090934A0280934902909371
:100800004C0280934B020E94860C009731F421E049
:1008100030E030935E0320935D031F910F910895A4
:1008200000911C0110911D0120911E0130911F01AA
:10083000FB01008311832283338395CF8FEF9FEFDA
:10084000ECCF8F929F92AF92BF92CF92DF92EF92B6
:10085000FF921F93CF93DF934B015C0110916003D4
:1008600082E090E090935E0380935D038114910495
:10087000A104B10441F480916003811104C080910E
:100880005F03C1E08111C0E0C12CD12C76018091C1
:100890006003811106C080915F03811102C0CC23E7
:1008A000D9F083E090E090935E0380935D03CC23C6
:1008B00081F1CCE9DFEF111102C00E942111CE01BC
:1008C000DF91CF911F91FF90EF90DF90CF90BF907D
:1008D000AF909F908F9008956AE070E080E090E084
:1008E0000E94FB2E80E1C80E87E2D81EE11CF11C9D
:1008F0008FEF88169806A806B80631F0C1E08C1470
:100900009D04AE04BF0408F0C0E080E00E94BA0C71
:10091000BECFD0E0C0E0CFCFCF92DF92EF92FF9278
:100920000F931F93CF93DF938F3F910511F008F042
:1009300050C020915D0330915E032330310539F0C2
:1009400020915D0330915E032130310531F424E0C4
:1009500030E030935E0320935D036A017B01EC017C
:1009600082309105A0F011E0AE01C701B601CDD7EC
:10097000AB01BC01CE011123F9F0DF91CF911F91A2
:100980000F91FF90EF90DF90CF900C9446138C0165
:10099000000F111F075B1D4FD8018D919C91892B72
:1009A00011F30E9450130297F1F6D801ED91FC91DA
:1009B000CE010995182FD8CF0E94681390E080E0EF
:1009C000DF91CF911F910F91FF90EF90DF90CF902B
:1009D00008958FEF9FEFF4CF80E0CCC7CF93DF93E4
:1009E00086E090E090935E0380935D030E94130D78
:1009F000EC01E9E4F2E084E0DF011D928A95E9F779
:100A00000E94B91010925E0310925D03CE01DF9137
:100A1000CF91089580915F030895809148030895D0
:100A200060931C0170931D0180931E0190931F0120
:100A300090E080E008958F929F92AF92BF92CF9204
:100A4000DF92EF92FF920F931F93CF93DF936B018F
:100A50008A017C01D0E0C0E0812C912C5401CC159E
:100A6000DD057CF0C501B401DF91CF911F910F919D
:100A7000FF90EF90DF90CF90BF90AF909F908F90BE
:100A80000895F70161917191819191917F010E9487
:100A9000C02CA8010E94782D9B01AC01C501B401B6
:100AA0000E94BF2B4B015C01005E1F4F2196D7CFE8
:100AB0002F923F924F925F926F927F928F929F926E
:100AC000AF92BF92CF92DF92EF92FF920F931F935C
:100AD000CF93DF93CDB7DEB7E5970FB6F894DEBFBF
:100AE0000FBECDBF7FA76EA748AB59AB3DA72CA7C4
:100AF0001DAB0CABFE86ED861BAB0AABD80130E01C
:100B000020E08D849E842815390514F18F83988701
:100B100010E000E08EA49FA40815190504F1E596E5
:100B20000FB6F894DEBF0FBECDBFDF91CF911F91FE
:100B30000F91FF90EF90DF90CF90BF90AF909F907C
:100B40008F907F906F905F904F903F902F9008957F
:100B50001D921D921D921D922F5F3F4FD2CFEF81AC
:100B6000F88581919191A191B191F887EF834D0121
:100B7000AA24BB24888A998AAA8ABB8A9C01AD01CF
:100B8000442755272C8B3D8B4E8B5F8B2D843E84C9
:100B9000201A310AECA5FDA5E215F3050CF41F019E
:100BA000F8A9FD8389A88E82AAA8BBA8BC86AB86BB
:100BB0001A861986C12CD12C760189849A848214D4
:100BC000930404F137FE02C0312C212C200E311E7B
:100BD000AD84BE842A143B046CF4220C331C220C1A
:100BE000331CACA9BDA9A20DB31DCD92DD92ED922F
:100BF000FC9213970F5F1F4FEAA9FBA93496FBAB3A
:100C0000EAAB88CFED81FE81419051906190719067
:100C1000FE83ED834301AA24BB24888E998EAA8E7D
:100C2000BB8E66247724288939894A895B89C30168
:100C3000B2010E9478324B015C012C893D894E89BA
:100C40005F89688D798D8A8D9B8D0E9478326C8F3B
:100C50007D8F8E8F9F8FEB85FC8581919191A191E6
:100C6000B191FC87EB879C01AD012C0D3D1D4E1D04
:100C70005F1D29833A834B835C83E1E02C153D059E
:100C80004E055F0508F0E0E02C893D894E895F89BB
:100C9000C301B2010E9478322B013C0189819A8103
:100CA000AB81BC81840D951DA61DB71D89839A83D8
:100CB000AB83BC83A4013327222728A339A34AA3EB
:100CC0005BA36C017D01C20ED31EE41EF51E8C8D4C
:100CD0009D8DAE8DBF8DDC01992788278CA39DA3A8
:100CE000AEA3BFA38C0D9D1DAE1DBF1D88A799A7E8
:100CF000AAA7BBA7AB85BC85149728A539A54AA58B
:100D00005BA52D933D934D935C9313974501AA24C6
:100D1000BB248E0E911CA11CB11C288939894A89DB
:100D20005B89688D798D8A8D9B8D0E947832860EC5
:100D3000971EA81EB91E2C8D3D8D4E8D5F8DCA014C
:100D4000AA27BB27880E991EAA1EBB1E81E090E031
:100D5000A0E0B0E029813A814B815C812415350502
:100D60004605570518F080E090E0DC01880D991DDC
:100D7000AA1DBB1D41E050E060E070E088A099A092
:100D8000AAA0BBA0C814D904EA04FB0418F040E0F0
:100D900050E0BA01840F951FA61FB71FC12CD12C9C
:100DA0007601C3948CA09DA0AEA0BFA028A539A5B4
:100DB0004AA55BA5281539054A055B0518F0C12C25
:100DC000D12C7601C80ED91EEA1EFB1EE985FA85D4
:100DD0003196FA87E987F1CEFC0191E08091160304
:100DE000811190E0928308952F923F924F925F92EB
:100DF0006F927F928F929F92AF92BF92CF92DF922B
:100E0000EF92FF920F931F93CF93DF93CDB7DEB78F
:100E100067970FB6F894DEBF0FBECDBF8091160363
:100E20008F5F8A3008F0D7C1809316036FE070E0BF
:100E300080E090E081D9909383068093820643E01E
:100E400050E0BE01635F7F4F66D920911801309159
:100E50001901AD85BE850E94C33260936A06709306
:100E60006B0680936C0690936D0665E070E080E001
:100E700090E05ADB9093AB068093AA0692E0E92EAD
:100E8000F12C8E010F5F1F4F21E030E04AE656E063
:100E900061E070E084E191E00BDE50E040E062E070
:100EA00070E0C801C8DD20E030E040E057E20E9479
:100EB000AC2D6B017C0120E030E04FE753E40E9451
:100EC000232C18160CF48AC120E030E0A901C701D8
:100ED000B6010E94722D87FD88C1B701A6018091DD
:100EE000AA069091AB06FEDA62E170E080E090E045
:100EF00023D990937B0680937A0643E050E062E723
:100F000076E009D920911A0130911B01A091720657
:100F1000B09173060E94C33260936E0670936F06A1
:100F200080937006909371060E94C02C20E030E000
:100F300040E054E30E94AC2D20910001309101016A
:100F400040910201509103010E94BE2B20910401A7
:100F50003091050140910601509107010E94AC2D8E
:100F600060935A0670935B0680935C0690935D06CF
:100F70008091A20681111092A206BE01675F7F4F89
:100F80008091A3068DDA69857A858B859C850E9480
:100F9000C22C209108013091090140910A01509121
:100FA0000B010E94AC2D6B017C01C0926606D092B1
:100FB0006706E0926806F092690680911E039091A0
:100FC0001F039F8B8E8BDC018D909D90AD90BC900C
:100FD0001091AC060091AD063090AE062090AF06A1
:100FE000A5019401612F702F832D922D0E94722DE7
:100FF00087FD0EC0A50194016091B4067091B506FD
:101000008091B6069091B7060E94722D87FF02C1AB
:10101000B091B406BF87E091B506EB8BF091B606B0
:10102000FC8B8091B7068D8B2B2F3E2F4F2F582F87
:10103000612F702F832D922D0E94232CA5019401E6
:1010400087FFD7C06F857B898C899D890E94232C5F
:1010500087FDD7C04090B0065090B1066090B206B0
:101060007090B3061F870B8B3C8A2D8A2F853B8996
:101070004C895D89C501B4010E94BE2B4B015C0106
:10108000A3019201C701B6010E94BE2BA5019401E4
:101090000E94272C20910C0130910D0140910E01EE
:1010A00050910F010E94AC2D9B01AC0120935E0674
:1010B00030935F0640936006509361066091100183
:1010C0007091110180911201909113010E94AC2D39
:1010D000609362067093630680936406909365063E
:1010E0004090CC065090CD066090CE067090CF0612
:1010F000A3019201612F702F832D922D0E94232C2A
:10110000AE89BF898D909D90AD90BC90811186C0B5
:101110008092AC069092AD06A092AE06B092AF0659
:10112000E0EBF6E0C082D182E282F38260910403B8
:101130007091050380910603909107036F5F7F4FC5
:101140008F4F9F4F609304037093050380930603B2
:10115000909307030E94C02C9B01AC01609108038F
:101160007091090380910A0390910B030E94AC2DAA
:10117000AE89BF896D937D938D939C9313978091D6
:101180000C0390910D03A0910E03B0910F030196F3
:10119000A11DB11D80930C0390930D03A0930E032A
:1011A000B0930F0367960FB6F894DEBF0FBECDBFA6
:1011B000DF91CF911F910F91FF90EF90DF90CF9033
:1011C000BF90AF909F908F907F906F905F904F9067
:1011D0003F902F9008951092160328CEC12CD12C49
:1011E0008FE7E82E83E4F82E78CEC12CD12C76013F
:1011F00074CE612F702F832D922D0E94722D87FD4A
:1012000029CF4090B8065090B9066090BA06709009
:10121000BB062CCF60E070E0CB013CCF8091B406E0
:101220009091B506A091B606B091B7068F87988BBE
:10123000A98BBA8B9C01AD01C301B2010E94232C82
:1012400081110BC08092B4069092B506A092B606AA
:10125000B092B706E8EBF6E065CF2F85388949896B
:101260005A89612F702F832D922D0E94232C87FF86
:10127000E9CF4ECFCF9386E00E941D01C82F61E0D9
:10128000811160E08AE00E9416016C2F89E00E94C3
:1012900016018091100390911103A0911203B09157
:1012A00013030196A11DB11D8093100390931103A8
:1012B000A0931203B0931303CF9108958F929F923E
:1012C000AF92BF92DF92EF92FF920F931F93CF9353
:1012D000DF9384E090E0E0D1E9E6F2E08BE193E097
:1012E00097838683CEE1D3E0D093AA02C093A9026C
:1012F00008E013E0158B048BF093D402E093D30243
:10130000F583E48321E030E0DC012D933C931092DF
:10131000EA021092F1028AE491E09387828780E2E8
:1013200093E09983888340E050E060E87FEB40934E
:101330001703509318036093190370931A034AE03C
:1013400057ED63E27CE3D8014D935D936D937C93FD
:101350001397C2EFD2E08BE298EFAAE6BAE0888357
:101360009983AA83BB8384E993EAACEEBEE08093C1
:10137000F6029093F702A093F802B093F90282E18B
:101380009DE9A2EFB7E78093FA029093FB02A09346
:10139000FC02B093FD0284E29DE9A7E4B2E18093F0
:1013A000FE029093FF02A0930003B0930103ADE50A
:1013B000B2E0B383A283EDE4F2E01196FC93EE93E6
:1013C0008CE591E0918380839383828395838483EA
:1013D0009783868391878087938782879587848781
:1013E0009787868782E093E015969C938E93149757
:1013F0001396DC93CE9312974FEF5FEFBA011896D6
:101400004D935D936D937C931B978091CC06909147
:10141000CD06A091CE06B091CF06C4E7D6E088AF46
:1014200099AFAAAFBBAF8093B4069093B506A093D3
:10143000B606B093B7061886812C912C540183947C
:1014400089869A86AB86BC866FE070E080E090E08B
:101450000E94E0009F878E87DD24D394DD8618AA42
:1014600089AA9AAAABAABCAAE12CF12C8701A801EF
:10147000970165E070E080E090E09AD89FAB8EAB7A
:10148000DDAA188289829A82AB82BC8262E170E016
:1014900080E090E00E94E0009F838E83DD821FA6A3
:1014A00018A689A69AA6ABA6BCA643EA56E063E0B6
:1014B00082E00E948101DDA61EA68FA503D8188AAE
:1014C000898A9A8AAB8ABC8A60E086E00E940E0113
:1014D000DD8A18A289A29AA2ABA2BCA261E08AE02E
:1014E0000E940E01DDA2188E898E9A8EAB8EBC8E64
:1014F00061E089E00E940E01DD8EDF91CF911F91A6
:101500000F91FF90EF90DF90BF90AF909F908F90E2
:10151000089580917C0681111FC081E080937C0634
:1015200080917D0690917E06A0917F06B091800605
:101530000197A105B10581F480918106882361F0AE
:101540006FE070E080E090E00E949C009093830642
:10155000809382060E9403018091A40681112DC010
:1015600081E08093A4068091A5069091A606A091A3
:10157000A706B091A8060197A105B105F1F48091E5
:10158000A9068823D1F065E070E080E090E00E9439
:1015900094029093AB068093AA0640E050E0BA0113
:1015A0000E94720265E070E080E090E00E94940288
:1015B0009093AB068093AA0646D880917406811159
:1015C0001FC081E080937406809175069091760625
:1015D000A0917706B09178060197A105B10581F435
:1015E00080917906882361F062E170E080E090E00C
:1015F0000E949C0090937B0680937A060E940301D0
:1016000080919C06811114C081E080939C0680919A
:101610009D0690919E06A0919F06B091A00601970D
:10162000A105B10529F48091A10681110E946F02E4
:1016300080918406811103C081E0809384068091AB
:101640009406811103C081E08093940680918C06FA
:10165000811103C081E080938C06089560E070E002
:1016600080E89FE7089560E070E080E89FE70895D4
:1016700060E070E080E89FEF089560E070E080E84F
:101680009FEF089560E070E080EC9FEF089560E0C8
:1016900070E080EC9FEF0895F5DF6093D0067093C3
:1016A000D1068093D2069093D306F1DF6093C406EF
:1016B0007093C5068093C6069093C706CFDF6093EC
:1016C000CC067093CD068093CE069093CF06CBDFE9
:1016D0006093C8067093C9068093CA069093CB06A0
:1016E000C7DF6093D4067093D5068093D606909397
:1016F000D706C3DF6093D8067093D9068093DA06C5
:101700009093DB0608954F925F926F927F928F9233
:101710009F92AF92BF92CF92DF92EF92FF920F9380
:101720001F93F894409038035090390360903A0327
:1017300070903B03C0902C03D0902D03E0902E03BB
:10174000F0902F034130510509F0A4C09B01AC017A
:10175000241935094609570929013A010091340332
:101760001091350320913603309137034801590118
:10177000840C951CA61CB71C80169106A206B30605
:10178000A0F4009130031091310320913203309185
:1017900033030F5F1F4F2F4F3F4F009330031093C2
:1017A00031032093320330933303809234039092B9
:1017B0003503A0923603B0923703009130031091A5
:1017C0003103209132033091330380923C03909295
:1017D0003D03A0923E03B0923F0300934003109359
:1017E0004103209342033093430360933803709383
:1017F000390380933A0390933B03A0E1B7E2A3013E
:1018000092010E94D2326C0D7D1D8E1D9F1D609332
:101810002C0370932D0380932E0390932F0300913C
:101820001C0110911D0120911E0130911F010F3FDD
:101830001F4F2F4F3F4FF1F000911C0110911D01E0
:1018400020911E0130911F010E3F1F4F2F4F3F4F20
:1018500089F0C0901C01D0901D01E0901E01F09015
:101860001F0121E08C149D04AE04BF0408F420E0A5
:101870002093480378941F910F91FF90EF90DF9091
:10188000CF90BF90AF909F908F907F906F905F9020
:101890004F9008954B015C0184189508A608B7087D
:1018A000A3019201261B370B480B590B64157505D4
:1018B00086059705D0F082169306A406B50640F477
:1018C00020E030E0A90181149104A104B10491F455
:1018D000A0E1B7E20E94D232A7019601261B370B86
:1018E000480B590BCA01B901C5CF82169306A4064D
:1018F000B50670F7A0E1B7E2A50194010E94D232CB
:101900006C0D7D1D8E1D9F1DB5CFFDCECF93DF933A
:1019100000D000D0CDB7DEB71C821B821A8219829C
:10192000109244031092450310924603109247030D
:10193000BE016F5F7F4FCE0103960E9480296981AF
:101940007A818B819C810E947022009761F4BE0194
:101950006F5F7F4FCE0103960E948C2969817A8147
:101960008B819C8129D50F900F900F900F90DF9164
:10197000CF910895FF920F931F93CF93DF93082F7A
:1019800060E070E0CB010E94FB2EFF24F3940E94E4
:101990005B21EC01892B89F010E0CE3F8FEFD80757
:1019A00069F0002361F160E070E0CB010E94FB2E42
:1019B00081E090E0892B59F322C011E020D5EC01A1
:1019C000892B21F0CE3F8FEFD80759F711111EC098
:1019D00011E0229609F410E00E940C21EC01892B01
:1019E00021F0CE3F8FEFD807E1F6111111C011E0C1
:1019F000CE3F8FEFD80709F410E001110BC0CE01E4
:101A0000DF91CF911F910F91FF90089511E0E4CFE6
:101A100011E0F3CF60E070E0CB010E94FB2E1F25A8
:101A2000812F90E0C7CFCF93DF9380914803882325
:101A300021F060E070E0CB0149D632D6D0E0C0E0C2
:101A4000892B71F06AE070E080E090E00E94FB2E4C
:101A500081E090DF25D62196C03D27E0D20781F7AF
:101A600024D60E94C4221092600310925F03109249
:101A7000590310925A0310925B0310925C03109268
:101A80005503109256031092570310925803109268
:101A90005103109252031092530310925403109268
:101AA0004D0310924E0310924F0310925003109268
:101AB000490310924A0310924B0310924C034EEFCD
:101AC0005FEF6FEF7FEF40931C0150931D01609318
:101AD0001E0170931F0110924803ECE3F3E028E02D
:101AE000DF011D922A95E9F710923803109239030D
:101AF00010923A0310923B03109234031092350374
:101B00001092360310923703109230031092310373
:101B1000109232031092330310922C0310922D0373
:101B200010922E0310922F03DF91CF9108951092FF
:101B30006C0310926D0310926E0310926F0310925B
:101B40006B03809174039091750390936A03809363
:101B50006903109268031092670310926303109256
:101B60006403109265031092660310927103109241
:101B7000700390E080E00895CF92DF92EF92FF92A1
:101B80000F931F93CF938C01019709F055C02091BB
:101B90007403309175038091690390916A034091B9
:101BA00074035091750350936A0340936903281797
:101BB000390781F010926803109267031092630353
:101BC00010926403109265031092660310927103E1
:101BD000109270038091740390917503019761F5E1
:101BE0008091700390917103892B21F480912001E1
:101BF000811112C080917003909171030197E1F4FB
:101C00008091630390916403A0916503B091660392
:101C10000197A105B10581F410926303109264034A
:101C200010926503109266031092200182E090E00A
:101C30009093710380937003809174039091750366
:101C4000019709F01CC180918A0390918B03801742
:101C5000910709F014C18091860390918703A091A8
:101C60008803B0918903009709F409C12091850385
:101C700021110DC040918603509187036091880324
:101C800070918903452B462B472B09F4F8C020910E
:101C90007003309171032230310509F0F0C02091BA
:101CA00067032111ECC0FC01C080D180E280F38089
:101CB00080916B03882309F4D3C0809177039091BE
:101CC0007803892B09F4FEC02091770330917803C3
:101CD00081E02230310509F080E0209177033091D6
:101CE0007803C1E02130310549F02091770330912C
:101CF0007803C1E02230310509F0C0E0882309F4FF
:101D000056C020918103309182034091830350910A
:101D10008403C701B6010E94722D87FD14C0209173
:101D20008103309182034091830350918403609139
:101D30006C0370916D0380916E0390916F030E940C
:101D4000232C87FD22C02091810330918203409192
:101D5000830350918403C701B6010E94722D1816A7
:101D600034F5209181033091820340918303509197
:101D7000840360916C0370916D0380916E03909168
:101D80006F030E94232C811112C0809179039091DE
:101D90007A03A0917B03B0917C03892B8A2B8B2B38
:101DA00019F481E08093680381E080936703CC237A
:101DB00009F456C02091810330918203409183033E
:101DC00050918403C701B6010E94232C87FF14C0E1
:101DD00020918103309182034091830350918403C9
:101DE00060916C0370916D0380916E0390916F030D
:101DF0000E94722D87FF22C02091810330918203BF
:101E00004091830350918403C701B6010E94232CA3
:101E1000811126C020918103309182034091830378
:101E20005091840360916C0370916D0380916E03F7
:101E300090916F030E94722D181694F4809179038B
:101E400090917A03A0917B03B0917C03892B8A2B1C
:101E50008B2B19F481E08093680381E08093670302
:101E600081E090916703911180E080936B03C092B1
:101E70006C03D0926D03E0926E03F0926F03013019
:101E8000110509F067C18091700390917103892B4E
:101E9000D9F4109276031092670380912001882371
:101EA00079F082E090E09093710380937003109238
:101EB0002001209174033091750381E0232BE9F018
:101EC00080E01BC081E009CF109220018091760351
:101ED000882349F0109268031092710310927003E6
:101EE00010927603EDCF8091740390917503892B46
:101EF000E1F08091670310926703209170033091A5
:101F000071032230310509F45EC088F421153105D2
:101F100009F448C02130310509F4F3C01092680378
:101F2000109267031092760338C081E0E6CF233029
:101F3000310509F4B1C02430310581F740916303C4
:101F400050916403609165037091660341155105DA
:101F50006105710561F041505109610971094093B2
:101F60006303509364036093650370936603409129
:101F70006303509164036091650370916603452B80
:101F8000462B472BD9F420917203309173032130F3
:101F9000310509F046C01092680310927103109247
:101FA00070030CC080912001882341F082E090E012
:101FB000909371038093700310922001109261033B
:101FC00080916803CEC08823C9F3809179039091F2
:101FD0007A03A0917B03B0917C03181619061A06A8
:101FE0001B060CF07DC080917403909175030197DE
:101FF00009F076C08091790390917A03A0917B03D8
:10200000B0917C038093630390936403A093650372
:10201000B093660383E090E0909371038093700324
:10202000CDCF40917D0350917E0360917F037091ED
:102030008003452B462B472BA9F010926803809113
:102040007D0390917E03A0917F03B09180038093E4
:10205000630390936403A0936503B093660381E0E8
:1020600090E0DACF882399F08091210190912201AC
:10207000A0912301B09124018093630390936403A2
:10208000A0936503B093660384E090E0C5CF1092FF
:10209000680382E090E0C0CF809163039091640375
:1020A000A0916503B09166030097A105B10559F0B1
:1020B0000197A109B1098093630390936403A093EE
:1020C0006503B09366038091630390916403A091CC
:1020D0006503B0916603892B8A2B8B2B09F06ECF99
:1020E0008091210190912201A0912301B0912401BE
:1020F000892B8A2B8B2B09F44ECF81E080936803C8
:10210000B3CF409163035091640360916503709174
:102110006603411551056105710561F04150510992
:1021200061097109409363035093640360936503ED
:10213000709366034091630350916403609165035B
:1021400070916603452B462B472B09F037CF811141
:10215000C7CF9FCF80916103882309F431CF80914D
:102160006203CF911F910F91FF90EF90DF90CF907E
:10217000089510926C0310926D0310926E031092EA
:102180006F0310926B031092710310927003109200
:102190006A031092690310928B0310928A031092C3
:1021A0006803109267031092630310926403109205
:1021B00065031092660310926203109261031092FD
:1021C000860310928703109288031092890310925D
:1021D0008503109281031092820310928303109260
:1021E000840388EE93E0A0E0B0E080932101909317
:1021F0002201A0932301B093240110927D03109239
:102200007E0310927F031092800310927903109244
:102210007A0310927B0310927C0310927803109241
:10222000770381E08093200110927603109275036A
:1022300010927403109273031092720390E080E086
:1022400008958091740390917503892BE1F4809136
:102250002001882351F080917603811106C081E02E
:1022600080936203809361030895809176038823AD
:1022700041F080912001811104C01092620381E03D
:10228000F1CF10926103089582E090E0FA0191830A
:1022900080838FEF9FEF0895CF93DF93EA0100973C
:1022A00011F00E94E4231982188290E080E0DF910F
:1022B000CF910895DB01009719F48FEF8C93089567
:1022C0002EEF2C9340968031910508F036C0FC012A
:1022D000E459FE4E0C94BD329B1199119711951142
:1022E000931191118D118F118B1189118711841107
:1022F00080117C1182119D1180E311968C930895B9
:1023000089E2FBCF82E2F9CF11961C92089583E215
:10231000F4CF81E2F2CF81E1F0CF87E2EECF8AE223
:10232000ECCF80E1EACF84E2E8CF88E2E6CF86E234
:10233000E4CF81E3E2CF83E3E0CF80E2DECF8091A0
:10234000980390919903089590939903809398032B
:10235000089580919703089590919703892B809316
:1023600097030895982F90958091970389238093E0
:102370009703089580919603089580919403909116
:10238000950308956115710559F0FB0130E020E0D7
:1023900070E060E02417350719F06115710511F040
:1023A000CB010895A081B181A817B90709F4BF0135
:1023B0002F5F3F4F3696EECF80919A0381111CC05C
:1023C00062D268D290938D0380938C030E94E61BA7
:1023D0000E94F81B90939103809390030E947620B3
:1023E0000E947D2090938F0380938E0381E08093E1
:1023F0009A0390E080E0089584EF9FEF08958F9214
:102400009F92AF92BF92CF92DF92EF92FF920F9383
:102410001F93CF93DF93CDB7DEB72A970FB6F8940B
:10242000DEBF0FBECDBF1A86198618861F821E8298
:102430001D821C821B821A82198280919A0307EFE7
:102440001FEF882309F49CC08E010D5F1F4F9E0172
:102450002B5F3F4FAE01495F5F4FBE01675F7F4F0C
:1024600090E080E00E94F6218C01009721F0059613
:10247000029708F0DBC029853A852115310509F45A
:1024800002C1ED80FE804B815C81B701640F751F36
:102490008F8198858617970708F4F5C0E20EF31E22
:1024A000D7019C91903C09F07FC04230510508F45F
:1024B0007BC011968C914091980350919903452BC4
:1024C00009F49CC0913F08F071C02CE1290F2D3018
:1024D00008F48BC02DE2290F203108F489C0903C0C
:1024E00021F48150823008F483C088E3890F8B3057
:1024F00008F481C09AE5C92E91E1D92EE4E4F1E116
:102500006D817E81AE014F5F5F4F89859A85099508
:102510005C01C114D104A1F189809A8081149104D5
:1025200079F18B819C818815990508F487C010E0AA
:1025300000E04B815C8170E060E0C7010E94E53201
:1025400001151105E9F449815A8169857A858D81E2
:102550009E81680F791FC501F6010995E980FA800F
:102560000D811E812F81388549855A856FEF7FEF58
:1025700081E090E00E9492218C01892B09F056C0E5
:10258000C8012A960FB6F894DEBF0FBECDBFDF910B
:10259000CF911F910F91FF90EF90DF90CF90BF9060
:1025A000AF909F908F90089580E085CF30E020E03D
:1025B000220F331FF901E457FC4F0190F081E02D09
:1025C000309709F497CF892F90E00995009709F487
:1025D00091CFDC011296ED91FC9113971496CD905A
:1025E000DC90309709F08CCF1FC021E030E0E0CFC5
:1025F00022E030E0DDCF23E030E0DACFD12CC12C77
:10260000ECE4F1E19F3F09F07BCFE0918C03F09186
:102610008D03309721F4C90104EF1FEF0CC08FEF39
:1026200090E009950097A9F604EF1FEF89859A8538
:10263000009709F4A5CF0E94E423A2CF0E94BF22F5
:102640008C0189859A850E94E42370E060E0C401D2
:102650000E94582298878F830E948F219E838D83AA
:102660006F8178856115710559F0C8010E94702548
:102670009A87898706EF1FEF892B09F058CF59CF2A
:1026800008EF1FEF56CF08EF1FEFD0CF20919A032E
:10269000222319F020E00C94FD1B87EF9FEF089593
:1026A000809198039091990308950E9482200E943E
:1026B000DC1FF5D0ECE8F3E088E0DF011D928A959D
:1026C000E9F710929A0390E080E008950C94391E87
:1026D00021E040E050E0BA010C94FD1B86E090E060
:1026E000FA019183808390E080E0089547E050E014
:1026F0006FE571E047CEDF92EF92FF920F931F9349
:10270000CF93DF938A01EC01C60FD71FE0909E03A1
:10271000F0909F03D9800E94A722D816190678F05E
:1027200082E090E0F801918380838EEF9FEFDF914C
:10273000CF911F910F91FF90EF90DF900895EF28B8
:1027400041F482E090E0F8019183808384EF9FEF71
:10275000EECF898180939D0390E00196F8019183EB
:10276000808390E080E0E3CFCF93DF93EA010E9483
:10277000EA1E882321F00E94B4220E94EB1E82E010
:1027800090E0998388838BEF9FEFDF91CF9108953D
:10279000CF93DF93EB0186E0FB0111928A95E9F775
:1027A0008FEF8883D6DD8983E5DD8A83E6DD9D832F
:1027B0008C83DF91CF910895CF93DF93EA010E943C
:1027C000ED1E811109C082E090E09983888385EF36
:1027D0009FEFDF91CF91089590E080E0B5DD81E03B
:1027E00090E09983888390E080E0F3CF0F931F936C
:1027F000CF93DF93EA018C01060F171F0E94ED1E95
:1028000081110BC082E090E09983888385EF9FEF70
:10281000DF91CF911F910F910895F801818182304E
:1028200038F082E090E0998388838EEF9FEFF0CFBD
:1028300081E090E089DD88E090E09983888390E0F2
:1028400080E0E6CFCF93DF930097D1F4EB01FB015B
:10285000329686E0DF011D928A95E9F78FEF888333
:1028600085E089831A820E94A7228B830E94A62278
:102870009D838C8381E08E838F83DF91CF91089538
:10288000DF91CF9117CD86E793E190939C038093DE
:102890009B03089580919B0390919C03089510924F
:1028A0009C0310929B03089580919E0390919F0337
:1028B0000895411105C0611571058105910561F00B
:1028C00060939E0370939F038093A0039093A10352
:1028D0004093A20381E0089580E00895FF920F9352
:1028E0001F93CF93DF938A01EC01C60FD71FF980A6
:1028F0000E94A722F816190668F082E090E0F8011D
:10290000918380838EEF9FEFDF91CF911F910F9185
:10291000FF9008956C817D818E819F814B81C9DFFD
:10292000811108C082E090E0F8019183808384EFF8
:102930009FEFEACF898180939D0390E00196F80193
:102940009183808390E080E0DFCFCF93DF93EA0133
:10295000FC01E60FF71F64817581868197814381B1
:10296000A8DF811109C082E090E09983888384EF19
:102970009FEFDF91CF91089581E090E09983888364
:1029800090E080E0F6CFEEE9F3E040815181628192
:102990007381480F511D611D711D408351836283F6
:1029A00073830895CF93C0919D034C2F50E06091A5
:1029B0009E0370919F0301960E94DC328C2FE3DF0F
:1029C00010929D03CF910895009799F480919E03F2
:1029D00090919F032FEFFB012083892B59F02091C9
:1029E0009D0330E02F5F3F4F2417350719F4CB01CB
:1029F000D9CF60CC0895009799F480919E0390916F
:102A00009F032FEFFB012083892B59F020919D0319
:102A100030E02F5F3F4F2417350719F4CB01C2CFA9
:102A200049CC089523E1AC01249FC001259F900D5E
:102A30001124E091A703F091A803E80FF91F238167
:102A400034812250310981E02230310508F080E0E4
:102A500008950F931F93CF93DF930091A9031091D3
:102A6000AA03D0E0C0E080E00C171D0749F491E014
:102A7000811190E0892FDF91CF911F910F910895DF
:102A80008111F5CFCE01CEDF2196EECFA091A70325
:102A9000B091A803109729F12091A9033091AA03BE
:102AA00082179307F0F453E1589F9001599F300D1E
:102AB0001124A20FB31FED91FC911197309789F06B
:102AC00012968C91681768F48DE0689FE00DF11DF7
:102AD000112480819181892B21F081E09281491715
:102AE00008F080E008959C0143E1429FC001439FAC
:102AF000900D1124E091A703F091A803E80FF91FAE
:102B00008385823091F481E090E065817681409107
:102B10002501509126016417750711F490E080E0BB
:102B2000892B19F081E0232B09F080E00895FC0146
:102B3000A081B1818DE0689FA00DB11D1124139675
:102B40004D915C9185859685489F9001499F300DF8
:102B5000589F300D1124C9010196611103C04781AE
:102B600044FD04960895EF92FF920F931F93CF9325
:102B7000DF93EA01FC01E60FF71F02811381E48075
:102B8000F5804F2D6E2DC80181DF81110DC082E0CF
:102B900090E0998388838EEF9FEFDF91CF911F9113
:102BA0000F91FF90EF900895C8013CDF882339F022
:102BB00082E090E09983888388EF9FEFEECF1093B7
:102BC0002C0100932B01E0922D01F0922E0181E067
:102BD00090E09983888390E080E0DFCFCF92DF920E
:102BE000EF92FF920F931F93CF93DF937A01EC0143
:102BF000C60FD71FC0902B01D0902C0100912D0142
:102C000010912E01412F602FC60140DF811110C0AD
:102C100082E090E0F701918380838AEF9FEFDF915C
:102C2000CF911F910F91FF90EF90DF90CF9008957B
:102C3000C601F8DE882341F082E090E0F70191833D
:102C4000808388EF9FEFEBCF4C815D816E817F8128
:102C50009A8189818F3F41F082E090E0F701918372
:102C600080838EEF9FEFDBCFE3E1EC9D9001ED9D44
:102C7000300D1124E091A703F091A803E20FF31F98
:102C80000190F081E02D2DE0029FE00DF11D112457
:102C90000190F081E02D27E0129FE00DF11D11243D
:102CA000808391838B81828343835483658376837E
:102CB0001F5F10932E0181E090E0F70191838083E4
:102CC00090E080E0ACCFEF92FF920F931F93CF93F1
:102CD000DF937A018C01060F171FC091A703D091D3
:102CE000A803209781F021E030E0F80182819381F0
:102CF0004091A9035091AA038417950710F030E082
:102D000020E0232B71F482E090E0F701918380832F
:102D10008EEF9FEFDF91CF911F910F91FF90EF907A
:102D2000089543E1489F9001499F300D1124C20F3F
:102D3000D31F78DE882341F082E090E0F701918391
:102D4000808388EF9FEFE6CFF8012481358120381A
:102D50003105C8F687818111D6CF4181842F90E05B
:102D60008F7E009741F082E090E0F70191838083AD
:102D700086EF9FEFCFCF4F833E832D832681288719
:102D80001986223010F421E0288721E030E0F70195
:102D900031832083BFCF88E090E0FA019183808364
:102DA00090E080E00895FB018FEF808381E18183D3
:102DB0008FEF9FEF9383828380E890E095838483F5
:102DC000168217820895FB018FEF808391E0918333
:102DD00082839383848384E3858381E090E0978377
:102DE0008683089582E090E0FA019183808380EFEA
:102DF0009FEF0895DF92EF92FF920F931F93CF936F
:102E0000DF93EA01FC01E60FF71F8181813071F049
:102E100082E090E0998388838FEF9FEFDF91CF91DD
:102E20001F910F91FF90EF90DF9008958281938121
:102E3000D4802581E680F7800091A7031091A80334
:102E40000115110539F482E090E0998388838CEFB5
:102E50009FEFE4CF4091A9035091AA0384179507EF
:102E600038F082E090E0998388838EEF9FEFD6CF91
:102E7000892B39F082E090E09983888386EF9FEF79
:102E8000CDCF8D2D8D7FB1F72130A1F781E0D1100D
:102E900006C091E0E916F10431F080E004C0E2E000
:102EA000EE16F104D0F3882329F390E080E0BADD38
:102EB000882339F082E090E09983888388EF9FEF40
:102EC000ADCFF801D38681E08487F686E586108A47
:102ED000178681E090E09983888390E080E09ECF20
:102EE0004DE050E069E871E04DCA8F929F92BF9229
:102EF000CF92DF92EF92FF920F931F93CF93DF93C6
:102F0000EA01FC01E60FF71F828193810481B580FD
:102F1000E091A703F091A803309791F482E090E04C
:102F2000998388838CEF9FEFDF91CF911F910F9151
:102F3000FF90EF90DF90CF90BF909F908F9008957B
:102F40002091A9033091AA038217930738F082E0F9
:102F500090E0998388838EEF9FEFE6CF23E1289F4F
:102F60006001299FD00C1124EC0DFD1DE080F18043
:102F7000E114F10499F28281081748F78DE0089F67
:102F800080011124E00EF11EF70180819181892BCF
:102F900029F6BB20E1F2F7E0BF9E40011124C401F5
:102FA0000E94AB23F70191838083E091A703F09106
:102FB000A803EC0DFD1D0190F081E02DE00FF11F45
:102FC00080819181009739F482E090E09983888331
:102FD0008DEF9FEFA9CFA40170E060E00E94E53281
:102FE0008091A7039091A803C80ED91EF601808195
:102FF0009181080F191FF801B28281E090E0998356
:10300000888390E080E090CFAF92BF92CF92DF9222
:10301000FF920F931F93CF93DF93EA01FC01E60F1A
:10302000F71F82819381F4800091A7031091A80378
:103030000115110581F482E090E0998388838CEF7B
:103040009FEFDF91CF911F910F91FF90DF90CF9075
:10305000BF90AF9008952091A9033091AA038217E1
:10306000930738F082E090E0998388838EEF9FEF9A
:10307000E8CF2FEF2F0D2C3FA8F723E1289F600109
:10308000299FD00C11240C0D1D1DF8018081918108
:10309000892B89F6FDE0FF9E50011124C5010E9495
:1030A000AB23F80191838083E091A703F091A803FB
:1030B000EC0DFD1D80819181009739F482E090E054
:1030C000998388838DEF9FEFBCCFA50170E060E00E
:1030D0000E94E532E091A703F091A803EC0DFD1DDD
:1030E000F28281E090E09983888390E080E0A9CF2C
:1030F000CF92DF92EF92FF920F931F93CF93DF93C4
:10310000860F971FFC01028113818091A703909184
:10311000A803892B81F082E090E0FA0191838083FB
:103120008CEF9FEFDF91CF911F910F91FF90EF9068
:10313000DF90CF900895C801B0E0A0E00197A10909
:10314000B1098F3F9F4FA105B10540F082E090E0AB
:10315000FA01918380838EEF9FEFE4CF7A0183E1C0
:10316000809F6001819FD00C1124C6010E94AB2377
:10317000EC01009741F482E090E0F70191838083B5
:103180008DEF9FEFCFCFA60170E060E00E94E532A7
:10319000D093A803C093A7031093AA030093A90395
:1031A00090E080E02FEF3FEF41E061E070E08017BA
:1031B000910741F481E090E0F7019183808390E0F2
:1031C00080E0B0CF3A8B298B1B864C877E876D873A
:1031D000188A1F8601966396EACFEF92FF921F939B
:1031E000CF93DF93EC0110E0F12CE12C6A811617EC
:1031F000A8F070E0660F771FAE014F5E5F4FC7010A
:103200000E941024009721F02FEF3FEF3A8B298B7B
:10321000DF91CF911F91FF90EF900895612FCE0124
:1032200086DC61E070E00E945822E816F90608F496
:103230007C011F5FDBCFF8942091A5033091A6039A
:1032400081E02115310509F080E0232B09F0789405
:1032500008952F923F924F925F926F927F928F923A
:103260009F92AF92BF92CF92DF92EF92FF920F9315
:103270001F93CF93DF933C01660E771EF30182818B
:1032800093814C01B12CA12CC091A703D091A8032C
:10329000209769F021E030E06091A9037091AA03C2
:1032A0008617970710F030E020E0232BD1F482E05E
:1032B00090E0FA01918380838EEF9FEFDF91CF91B1
:1032C0001F910F91FF90EF90DF90CF90BF90AF9044
:1032D0009F908F907F906F905F904F903F902F9036
:1032E000089580922F0190923001A0923101B09206
:1032F000320163E1689F9001699F300D1124C20F74
:10330000D31FF3018181833040F082E090E0FA0125
:103310009183808386EF9FEFD1CF2A012B813C815F
:10332000232BF1F4288139819F8191FF2EC0232B1B
:1033300009F46FC02091AC039A81422F490F5527A1
:10334000551FBA0141E050E06138710514F050E0BA
:1033500040E0452B09F45DC02A87920F9093AC039F
:103360008150823008F481C066DF882309F4D8C018
:10337000F3018181813009F48DC008F47BC0823073
:1033800009F4C6C090E080E0ADC0232B09F441C031
:103390002091AB039A81E22FE90FFF27FF1F41E045
:1033A00050E0ED3FF10514F050E040E0452B89F18D
:1033B0002A87920F9093AB03D3CFA081B181A20F44
:1033C000B31F11966C91060F111D0196295F3F4F97
:1033D0008417950794F38D859E85089F1001099F9A
:1033E000300C189F300C1124C114D104D1F48F81FA
:1033F00084FF17C00E94A622F5E02F0E311C21E0A9
:103400008215930508F420E0A701435F5F4F211167
:103410000EC082E090E0F2019183808387EF9FEFFE
:103420004DCF0E94A6222FEF221A320AE8CF8881C0
:103430009981E80EF91EF70114830383FFEFCF1A79
:10344000DF0A7A018A818C151D0409F00CF48CCFF7
:10345000E881F981EE0DFF1D428150E030E020E06F
:1034600010E000E090E080E0B3CFF12CE12CD12C13
:10347000C12CE8CF81E090E09C838B83EADA88233B
:1034800009F480CF81E090E00E94A41180E40E94C2
:10349000B21178CF89899A89019661F083E090E032
:1034A0009C838B8382E090E00E94A41180E40E94C0
:1034B000AC1168CF8D819E8120912501309126012C
:1034C00082179307D1F46091290170912A01AE010E
:1034D0004F5E5F4F80912701909128010E942F2518
:1034E0000097E1F2789422E030E0F201318320830A
:1034F000892B99F08DEF9FEFE1CE89288A288B28C0
:1035000069F6039758F6CE0168DE188A1F86E8CF61
:1035100082E090E09C838B8335CF90E080E0CECE3C
:1035200082E090E0F2019183808385EF9FEFC6CE29
:103530008F929F92AF92BF92CF92DF92EF92FF92C3
:103540000F931F93CF93DF93EA018C01060F171F90
:10355000F8018181833098F082E090E0998388833C
:1035600086EF9FEFDF91CF911F910F91FF90EF902A
:10357000DF90CF90BF90AF909F908F9008958091F3
:10358000A7039091A803892B61F081E090E020913E
:10359000A9033091AA03232B11F490E080E0892B3A
:1035A00039F482E090E0998388838EEF9FEFDACF41
:1035B00042DE882309F4E0C0F8018181813009F4FA
:1035C00096C0E8F0823099F42091A9033091AA03C3
:1035D000E091A703F091A80390E080E041E050E083
:1035E0002817390709F0BEC034DA811117C0789462
:1035F00081E090E09983888390E080E0B3CF2091D0
:10360000A9033091AA03E091A703F091A80390E0E9
:1036100080E041E050E02817390741F481E090E074
:103620000E94A41180E40E94B211E1CF63817481F1
:10363000672B11F05483438301967396ECCFE0918E
:10364000A703F091A803E00FF11F238134812230FA
:103650003105D9F4218932892F3F3F4FB1F42581BB
:10366000368140912501509126012417350761F5D7
:10367000AF014F5E5F4F6091290170912A018091E7
:103680002701909128010E942F25EFEFCE1ADE0A24
:10369000EE0AFE0A0D5E1F4F4091A9035091AA0346
:1036A00070E060E0C416D506E606F70644F500971C
:1036B00031F27894892B09F49BCF82E090E09983D2
:1036C00088838DEF9FEF4ECFC114D104E104F10444
:1036D000E1F623303105C8F6CF017FDDE091A70385
:1036E000F091A803E00FF11F108A1786CECF10E0EB
:1036F00000E090E080E0C12CD12C7601CDCF009786
:10370000C1F610E000E0812C912C540183E0E82EFA
:10371000F12C1AC0E091A703F091A803E00FF11F6C
:1037200083819481029749F4F482E38282E090E0FD
:103730000E94A41180E40E94AC11FFEF8F1A9F0A2F
:10374000AF0ABF0A0D5E1F4F8091A9039091AA0393
:10375000B0E0A0E088169906AA06BB06DCF290E06D
:1037600080E0A7CF638174816230710511F45483C6
:1037700043830196739634CF82E090E099838883E7
:1037800085EF9FEFEFCE0097B9F48FEFFB018083B9
:1037900020912F013091300143E1429FC001439FAE
:1037A000900D1124E091A703F091A803E80FF91FF1
:1037B0008285FB01818308950C945A1188E090E082
:1037C000FA019183808390E080E008951092A6032F
:1037D0001092A503E7EAF3E086E0DF011D928A95E7
:1037E000E9F780E797E19093A4038093A3030895FA
:1037F0008091A3039091A40308952F923F924F923A
:103800005F926F927F928F929F92AF92BF92CF9270
:10381000DF92EF92FF920F931F93CF93DF93CDB779
:10382000DEB72F970FB6F894DEBF0FBECDBFF8946A
:10383000E091A503F091A6033196F093A603E093DF
:10384000A50378944090A7035090A8034114510415
:1038500009F40CC2E091A903F091AA03EF2B09F43B
:1038600005C22D8749875A876B877C8798878F8306
:103870001201B12CA12C10E000E08091A9039091DD
:10388000AA03A816B90618F40115110529F1F89430
:103890008091A5039091A60301979093A60380932E
:1038A000A5037894C8012F960FB6F894DEBF0FBE1B
:1038B000CDBFDF91CF911F910F91FF90EF90DF90DF
:1038C000CF90BF90AF909F908F907F906F905F90C0
:1038D0004F903F902F9008957101E418F508D101A1
:1038E00017968C91179781FD54C013968D919C91DA
:1038F0001497039709F04DC015968D919C91EF8117
:10390000F8858E179F0709F044C0B50190E080E06C
:103910007ED48A832091A7033091A8033D832C8312
:103920003D85332309F44CC04C815D81452B09F45E
:103930009AC18091A9039091AA03A816B90608F02C
:1039400092C1C501D0D88823E9F06C817D816E0DCC
:103950007F1D7D836C83DB011F968D919C91892B4C
:1039600089F0D12CC12CF12CE12CAC81BD811296B7
:103970008C9112978E151F0409F094F450961C92A6
:103980001E921F972A81222321F0B50190E080E04A
:1039900040D43FEFA31AB30A43E1240E311C6DCF8C
:1039A000AC81BD81ED91FC91EC0DFD1D8581968171
:1039B0000BD7BFEFEB1AFB0AEDE0CE0ED11CD5CF33
:1039C000EC81FD81309709F44EC18091A90390915B
:1039D000AA03A816B90608F046C1EE0DFF1DFF8721
:1039E000EE87C50180D88B83882339F1AE85BF85EA
:1039F0001F968D919C915097019621E01D964D91B7
:103A00005C918417950709F020E02E831982712CB0
:103A100010E000E0AE85BF8512968C91781608F410
:103A20005DC0EE85FF8587859089019665857685E1
:103A30000E948732908B8787A5CFB1E0BE83E6CF07
:103A4000992493946BC087D6F6019683858382C0B0
:103A5000D601ED90FC90B7E06B9EE00CF11C1124B8
:103A6000F7016381748180818F3F61F121E030E053
:103A700002C0220F331F8A95E2F7C901092E000CFC
:103A8000AA0BBB0BFB0140815181628173818423AE
:103A90009523A623B72321E0892B8A2B8B2B09F4AE
:103AA00020E0D4012C93D70111968C91F601238547
:103AB0003485820F932F911D880E991E14861386CC
:103AC00063949BC0418150E0C4010E94DC32EBCF83
:103AD000998206EF1FEFC5C01982C3C0F981F111A9
:103AE000A0CFEDE07E9E70011124AE85BF85CD9004
:103AF000DC90CE0CDF1C13D49D838C83BB81BB2355
:103B000009F49ECF81E0EE85FF8527853089232B40
:103B100009F080E0982E882309F458C0672D8E851F
:103B20009F8505D8D60118969C938E93179761E0D0
:103B300070E0BED4EE85FF85218932892F3F3207A0
:103B400009F481CFBC01C901CBD7D60116969C934D
:103B50008E931597D60115968D919C911697009787
:103B600009F4B6CFEC81FD818E0F9F1F1A969C93AE
:103B70008E931997AE85BF85ED91FC911197EE0E4E
:103B8000FF1EF70121853285148613861A968C91C3
:103B9000870DD9018D93711016C0EE85FF85878141
:103BA00084FF11C049855A856B857C85F901418365
:103BB000528363837483F701838594850496A80FE9
:103BC000B91F14861386F701B287A187D60115960F
:103BD0008D919C911697892B09F443C0EE85FF8542
:103BE000258136818091250190912601281739077A
:103BF00079F019968D909C90612CD60112968C913B
:103C00001297681608F424CF1A969C928E921997F0
:103C1000BE81BB2309F460CF61E070E0F6018781CB
:103C2000908546D4D6011796ED90FC90189715967E
:103C30004D915C91E1E0F0E0BA81BB2311F0F0E03E
:103C4000E0E00C811D819C01B501882799278E1B1E
:103C50009F0B68D38C01892B21F0F6018581968119
:103C6000B3D57394D7CE0FEF1FEF8CCE10E000E0EA
:103C70000ECE2F923F924F925F926F927F928F92D1
:103C80009F92AF92BF92CF92DF92EF92FF920F93EB
:103C90001F93CF93DF938091A7039091A80310E027
:103CA00000E0892BA9F0C7DA0AEF1FEF882381F023
:103CB0002090A9033090AA03C091A703D091A80334
:103CC000D12CC12C10E000E02C143D04A9F4789410
:103CD000C801DF91CF911F910F91FF90EF90DF907E
:103CE000CF90BF90AF909F908F907F906F905F909C
:103CF0004F903F902F900895C6010E94731588231E
:103D000009F18B819C810397E9F48F859889892B30
:103D1000C9F0B60190E080E07AD221E030E088235B
:103D200011F030E020E044245524421A530AB12C0B
:103D3000A12C912C812C8A818815190409F038F462
:103D4000188A1F864FEFC41AD40A6396BDCFE88144
:103D5000F981EA0DFB1D85819681892BA1F161E036
:103D600070E087819085A4D33C01D9D28C01E88191
:103D7000F981EA0DFB1D8185928525813681200F11
:103D8000311FAC01421B530B9A0147815085421BE6
:103D9000530B70E060E00E94E532E881F981EA0DA2
:103DA000FB1DE780F084458156819301B601C20175
:103DB000B9D28C01892B39F0E881F981EA0DFB1D1C
:103DC0008581968101D55FEF851A950A8DE0A80E51
:103DD000B11CB1CF30CA789408952F923F924F9280
:103DE0005F926F927F929F92AF92BF92CF92DF923B
:103DF000EF92FF920F931F93CF93DF9300D000D0E9
:103E000000D0CDB7DEB70091A7031091A803992485
:103E100093940115110509F43EC0A090A903B09038
:103E2000AA0309DA982E8823B1F11092A803109200
:103E3000A7031092AA031092A9031092AB03109249
:103E4000AC038FEF9FEFDC0180932F019093300143
:103E5000A0933101B093320178947AD31E830D83FD
:103E6000C12CD12C7601C501B0E0A0E089839A83F2
:103E7000AB83BC8322242A94322C89819A81AB8122
:103E8000BC81C816D906EA06FB06F4F0C8019CD42A
:103E900080E40E94B211892D26960FB6F894DEBFF9
:103EA0000FBECDBFDF91CF911F910F91FF90EF908B
:103EB000DF90CF90BF90AF909F907F906F905F907A
:103EC0004F903F902F900895AD81BE8115968D91B2
:103ED0009C91169720912501309126018217930716
:103EE000D1F451968D919C91E9D5ED81FE8180812F
:103EF0009181B12CA12C412C512C3201892B89F5B7
:103F0000BFEFCB1ADB0AEB0AFB0AED81FE81739649
:103F1000FE83ED83B2CFC114D104E104F10429F78B
:103F2000039718F7ED81FE81818992898F3F980769
:103F300009F024D5AD81BE8152963C922E925197C4
:103F4000D4CF8A0D9B1DDC018D919C91009709F0C7
:103F50003BD4BFEF4B1A5B0A6B0A7B0AEDE0AE0E57
:103F6000B11CAD81BE818D919C91119712964C919F
:103F700050E070E060E044165506660677060CF3E4
:103F800023D4BECFCF93DF93EA0127DF811109C08D
:103F900082E090E09983888385EF9FEFDF91CF9156
:103FA000089581E090E00E94A41181E090E099835F
:103FB000888390E080E0F2CF10DF1092A40310928B
:103FC000A303089542E050E067ED71E00C94C21144
:103FD000FF920F931F93CF93DF938A01EC01C60FDB
:103FE000D71FF980B4D20897F816190671F068F057
:103FF00082E090E0F801918380838EEF9FEFDF9164
:10400000CF911F910F91FF9008956C817D818E81DA
:104010009F814B810E945914811108C082E090E079
:10402000F8019183808384EF9FEFE9CFF9800E94AC
:1040300054144F2D50E0BE01685F7F4F0E94DC3268
:1040400089810E94C31481E090E0F801918380830C
:1040500090E080E0D4CFDF92EF92FF920F931F9316
:10406000CF93DF938A01EC01C60FD71F0E9454142F
:104070007C01D9806CD2DD2059F0029721E030E03C
:10408000D816190619F010F030E020E0232B79F44F
:1040900082E090E0F801918380838EEF9FEFDF91C3
:1040A000CF911F910F91FF90EF90DF900895EF282F
:1040B00041F482E090E0F8019183808384EF9FEFE8
:1040C000EECFF9800E9454144F2D50E0BE016E5F78
:1040D0007F4F0E94DC3289810E94C31481E090E00E
:1040E000F8019183808390E080E0D9CF82EE9FE158
:1040F0009093AE038093AD0308958091AD039091AA
:10410000AE0308950895FC01118210829383828387
:104110000895DB011D921C92DC011296ED91FC9139
:1041200013977183608313967C936E93129708950F
:10413000FC0180819181DB018D939C93A081B181F1
:10414000109741F08D919C9191838083892B11F47C
:10415000F383E2830895FC0180819181DB018D93DB
:104160009C93892B11F47383628371836083089518
:10417000FC0111821082938382830895CF93DF9391
:1041800000D0CDB7DEB71A821982F894BE016F5FF6
:104190007F4F84EB93E0CCDF89819A81009709F00F
:1041A00013D389819A81892B89F7BE016F5F7F4F75
:1041B00088EB93E0BDDF89819A81009709F004D3F1
:1041C00089819A81892B89F778940F900F90DF91DC
:1041D000CF910895CF93DF9300D0CDB7DEB71A8289
:1041E0001982F894BE016F5F7F4F80EB93E0A0DFF0
:1041F00089819A81009709F0E7D289819A81892B78
:1042000089F778940F900F90DF91CF91089581E016
:10421000089590E080E00895EF92FF920F931F932E
:10422000CF93DF9300D0CDB7DEB71A821982809189
:10423000AF0307EF1FEF8823A1F1F894BE016F5F72
:104240007F4F88EB93E074DF789489819A81EE2424
:10425000E394F12C892B51F4F894BE016F5F7F4FEA
:1042600084EB93E065DF7894F12CE12C89819A81CD
:104270000EEF1FEF0097A9F0FC014281538164E02B
:1042800070E072D68C01892B61F0F89469817A8193
:10429000C701880F991F880F991F8C549C4F5BDFB3
:1042A0007894C8010F900F90DF91CF911F910F91DB
:1042B000FF90EF9008950F931F93CF93DF9300D05B
:1042C00000D0CDB7DEB71C821B821A821982809182
:1042D000AF0307EF1FEF8823C1F0AE014D5F5F4FC3
:1042E00064E070E0CE010196B2D68C01892B69F4AE
:1042F000E981FA818B819C8193838283F89469811F
:104300007A8180EB93E005DF7894C8010F900F90DD
:104310000F900F90DF91CF911F910F910895B7D714
:10432000049608958F929F92AF92BF92CF92DF92A0
:10433000EF92FF920F931F93CF93DF9300D0CDB7EF
:10434000DEB71A821982BC016F5F7F4F633071053F
:1043500098F0AA24AA94BA2CC5010F900F90DF916F
:10436000CF911F910F91FF90EF90DF90CF90BF9072
:10437000AF909F908F9008954115510551F34801DA
:1043800059018A016C01CBDF8815990511F7E114F9
:10439000F104F9F28E0D9F1DA816B906D0F2809196
:1043A000AF038823F1F0F894B501645071099701C7
:1043B000AE014F5F5F4FC8010496DED65C01892BCA
:1043C00071F489819A81F80193838283C601880FF1
:1043D000991F880F991FB8018C549C4F9ADE7894CE
:1043E000BBCF87EFA82EBB24BA94B6CFAF92BF92B3
:1043F000CF92DF92EF92FF920F931F93CF93DF93B1
:1044000000D0CDB7DEB71A821982892B09F047C0D8
:104410006115710509F443C04115510509F43FC008
:104420002115310509F43BC001151105C1F1809139
:10443000AF038823B9F179016A015B01F894BE01E9
:104440006F5F7F4F80EB93E073DE789489819A8170
:10445000009759F1DC0112966D917C91A8010496A8
:10446000A4D68C01E981FA81D501ED93FC93828178
:1044700093810496F6019183808351DFD7018D9358
:104480009C93C8010F900F90DF91CF911F910F91D6
:10449000FF90EF90DF90CF90BF90AF9008950FEF17
:1044A0001FEFEFCF07EF1FEFECCF0EEF1FEFE9CFBE
:1044B000CF93DF93EC01672B71F4F2D68C179D0735
:1044C00060F0E5D62496C80FD91FE4D68C0F9D1F47
:1044D000DF91CF910895E1D6F1CF90E080E0F8CF61
:1044E0000F931F93CF93DF932091AF0321112BC024
:1044F0008B01EC0184EB93E006DE88EB93E003DEB6
:1045000080EB93E000DE97D00097C1F4C9D670E04D
:1045100060E0CEDF43E351E062E070E081D10097DC
:1045200069F48091330190913401CCD6B801CE0169
:1045300001D5009719F421E02093AF03DF91CF91CB
:104540001F910F91089584EF9FEFF8CFA6C6A8C6DC
:10455000CF93DF93A8D6EC01892B11F40FDE3ADE5E
:10456000CE01DF91CF910895CF93DF939CD6EC01DC
:10457000892B09F403DECE01DF91CF91089580915C
:104580003301909134010895CF93DF938091AF036D
:10459000D0E0C0E08823D1F09AD6EC01892BB1F4A9
:1045A000EDDD18DE8091330190913401E7D1E8D23E
:1045B000EC01892B59F484EB93E0DADD88EB93E08E
:1045C000D7DD80EB93E0D4DD1092AF03CE01DF9115
:1045D000CF910895EF92FF920F931F93CF93DF93A4
:1045E000EC017A018B010F5F1F4F0E9DA0010F9D03
:1045F000500D1E9D500D112470E060E00E94E532C8
:1046000090E080E0F0E0E0E02FEFE816F90639F402
:10461000DF91CF911F910F91FF90EF9008951A8233
:1046200019822883309711F0D283C1830196FE014D
:10463000C00FD11FEACFCF92DF92EF92FF920F937C
:104640001F93CF93DF9300EE14E00C7F43E050E024
:1046500065E371E08BE391E01AD485E3E82E81E015
:10466000F82E9BE3C92E91E0D92ECFE6D5E0D701F5
:104670004D915D917D01F601619171916F011983F9
:1046800008835D834C835B834A837F836E839B01B6
:104690002F5F3F4F249FC001259F900D349F900DA9
:1046A0001124998788870115110511F0C80192DF3F
:1046B00088859985080F191F2A96FBE3EF16F1E00C
:1046C000FF06A9F6EEEBF3E08FE191E0DF019C013C
:1046D0001D9221503040E1F71092BD031092BC03AF
:1046E00010928E0510928D051092920510929105F0
:1046F0001092900510928F051092940510929305D8
:1047000010929605109295051092980510929705B3
:1047100010929C0510929B0510929A051092990593
:1047200010929E0510929D051092A00510929F0573
:1047300010926C0510926B0510926E0510926D052B
:1047400090E080E0DF91CF911F910F91FF90EF906B
:10475000DF90CF9008950097F1F0F894ABE3B1E0CB
:10476000EFE6F5E030E020E04D915D914817590704
:10477000A8F0428153814115510581F08AE0829F62
:10478000F001839FF00D1124E159FA4F808191814E
:10479000009759F4789490E080E008952F5F3F4FA0
:1047A0003A962330310501F7F5CFDC0111966D9172
:1047B0007C91718360834150510953834283FC0192
:1047C0002193CF0178940895009749F1DC018E91EF
:1047D000853041F4E0916D05F0916E053097F9F068
:1047E000CD0109948530D8F4282F30E0F8948FEF6C
:1047F0008C938AE0829FF001839FF00D1124E15990
:10480000FA4F8081918112969C938E931197B18378
:10481000A083828193810196938382837894089503
:10482000CF92DF92EF92FF920F931F93CF93DF937C
:104830009C0181EC93E08C7F4115510509F49BC0EC
:104840002115310509F497C06115710509F493C06C
:104850007A01AB01B9016D5F7F4F6C7F9B012F5FC8
:104860003F4F249F8001259F100D349F100D112470
:10487000F89420918D0530918E05232B59F42091C9
:104880009505309196052115310569F120173107FD
:1048900008F058C02091970530919805232B91F48A
:1048A0002091950530919605820F931F20919F05C9
:1048B0003091A0052115310509F441C020173107B9
:1048C00008F056C07894CFEFDFEF86EF9FEFF70147
:1048D000D183C083DF91CF911F910F91FF90EF9013
:1048E000DF90CF900895C3E0D0E0C090BC03D0909B
:1048F000BD032CE131E02C193D092017310710F3DD
:104900002AE02C9FF0012D9FF00D1124E159FA4F60
:104910009183808355834483538342837783668363
:1049200011870087009709F055DE0C0D1D1D1093AF
:10493000BD030093BC03789490E080E0C8CFC4E04E
:10494000D0E0D3CFC3E0D0E02AE02C9FF0012D9F30
:10495000F00D1124E159FA4F9183808355834483EC
:104960005383428377836683009729F333DEE3CF53
:10497000C4E0D0E0E9CF8FEF9FEFACCF9C0103976D
:10498000029708F069C0F89484E09AE0482F50E05C
:10499000241735070CF44DC091E08AE0829FF001A6
:1049A000839FF00D1124E159FA4F11821082158274
:1049B000148213821282178216829923B1F1809198
:1049C0008D0590918E05892BA9F420919505309144
:1049D00096052115310571F08091BC039091BD03BE
:1049E000821B930B9093BD038093BC03109296059A
:1049F000109295058091970590919805892BA9F4BF
:104A000020919F053091A0052115310571F080910D
:104A1000BC039091BD03821B930B9093BD038093C5
:104A2000BC031092A00510929F05789490E080E05E
:104A30000895949FF001959FF00D1124E159FA4FCC
:104A400040815181452B31F440855185452B11F42E
:104A500081509CCF90E0A1CF8FEF9FEF089541153B
:104A6000510549F1009739F16115710521F1F8946B
:104A700020916B0530916C05232BB9F420916D05C5
:104A800030916E05232B89F490936C0580936B0510
:104A900070936E0560936D05789425E030E090E0AA
:104AA00080E0FA0131832083089578942FEF3FEF5F
:104AB00086EF9FEFF6CF8FEF9FEF0895059769F48C
:104AC000F89410926C0510926B0510926E0510927E
:104AD0006D05789490E080E008958FEF9FEF089542
:104AE0006115710519F4F0E0E0E011C08530910521
:104AF00081F4E0916B05F0916C053097A1F3CB0147
:104B000001960995009779F3FC0185E08193CF0127
:104B100008959C01235031092230310520F72AE005
:104B2000289FD001299FB00D1124A159BA4F2D9172
:104B30003C911197232BB9F216962D913C91179722
:104B40002617370780F2F89412962D913C9113970F
:104B50002115310529F0ED91FC911197309711F451
:104B60007894C1CF4181528111965C934E9321502C
:104B7000310913963C932E93129781937894C7CF63
:104B8000EDEDF4E08EE8DF011D928A95E9F7EEEB9A
:104B9000F3E08FE191E0DF019C011D922150304054
:104BA000E1F71092BD031092BC03EFE6F5E082E35B
:104BB000DF011D928A95E9F7EBE6F5E084E0DF017D
:104BC0001D928A95E9F790E080E00895CF93DF93F6
:104BD000C0914101D0914201CF3FDC0759F443D449
:104BE000909342018093410197FF09C0D093420105
:104BF000C093410184EF9FEFDF91CF91089590E042
:104C000080E0FACF8230910528F48093A10590E0EE
:104C100080E008958FEF9FEF08954F925F926F921B
:104C20007F92AF92BF92CF92DF92EF92FF920F935B
:104C30001F93CF93DF9300D0CDB7DEB71A821982CE
:104C4000009709F479C06115710509F475C02091C8
:104C500041013091420107EF1FEF2F3F3F4F09F411
:104C600045C06B015C01412C512C3201F12CE12C2F
:104C700010E000E09E012F5F3F4FA6014E195F0933
:104C8000B5016E0D7F1D80914101909142014AD482
:104C9000892B09F04BC089819A81009741F4E11476
:104CA000F10429F42091A105222309F442C0E80E61
:104CB000F91EEC14FD04D0F480E8481684E8580688
:104CC0008EE16806710420F560E070E0CB010E947F
:104CD000FB2E2AE0420E511C611C711C0A3F4FEF53
:104CE000140721F0043F8FEF1807A1F4C8010F90BB
:104CF0000F90DF91CF911F910F91FF90EF90DF9078
:104D0000CF90BF90AF907F906F905F904F9008953D
:104D100001EF1FEF81E090E0013F2FEF120711F04C
:104D200090E080E0892B09F4A5CFE0CF04EF1FEFDE
:104D3000DDCF0AEF1FEFDACF0FEF1FEFD7CF4F9284
:104D40005F926F927F92AF92BF92CF92DF92EF927B
:104D5000FF920F931F93CF93DF9300D0CDB7DEB7B1
:104D60001A821982009709F479C06115710509F456
:104D700075C0209141013091420107EF1FEF2F3F95
:104D80003F4F09F445C06B015C01412C512C3201AD
:104D9000F12CE12C10E000E09E012F5F3F4FA601B7
:104DA0004E195F09B5016E0D7F1D809141019091F3
:104DB00042016ED3892B09F04BC089819A810097FB
:104DC00041F4E114F10429F42091A105222309F40E
:104DD00042C0E80EF91EEC14FD04D0F480E448163D
:104DE00082E458068FE06806710420F560E070E008
:104DF000CB010E94FB2E2AE0420E511C611C711C4B
:104E00000E3F4FEF140721F0043F8FEF1807A1F476
:104E1000C8010F900F90DF91CF911F910F91FF90DC
:104E2000EF90DF90CF90BF90AF907F906F905F90AA
:104E30004F90089502EF1FEF81E090E0023F2FEFC7
:104E4000120711F090E080E0892B09F4A5CFE0CFA4
:104E500004EF1FEFDDCF0EEF1FEFDACF0FEF1FEFE5
:104E6000D7CF80914101909142018F3F980749F03F
:104E7000F2D2892B49F48FEF9FEF909342018093F8
:104E8000410190E080E0089584EF9FEF0895CF9274
:104E9000DF92EF92FF920F931F93CF93DF9321E066
:104EA0004115510509F020E04150510921112CC054
:104EB000DC01FB01D12CC12C21E022C03FEFC31A41
:104EC000D30A7D010D911D91E701EA80FB80E01678
:104ED000F106A8F420813181E280F380F182E08242
:104EE00033832283ED90FC9011979D01225031096C
:104EF000E901F982E88211961C930E9320E0329624
:104F0000C416D506D8F2D2CFDF91CF911F910F9161
:104F1000FF90EF90DF90CF900895FC01680F791F0C
:104F200090E080E0E617F70709F408952191820FD9
:104F3000911DF8CF2091A205211113C047DE0097E3
:104F400091F41092A8051092A7051092A605109250
:104F5000A5051092A4051092A30521E02093A205B7
:104F6000089584EF9FEF0895AF92BF92CF92DF92A2
:104F7000EF92FF920F931F93CF93DF93009709F463
:104F800060C04630510508F45CC02091A205C7EF0F
:104F9000DFEF222309F449C08C01060F171FF80127
:104FA000C080D180C114D10409F44EC096012A5F9B
:104FB0003F4F4217530708F447C07C018091A70573
:104FC0009091A80593838283B6016C5F7F4F58014F
:104FD000A60EB71EC801A1DFF5019183808364E0AE
:104FE00070E0C8011ADEEC01892BF9F481E090E051
:104FF00009DEB601C801049610DEEC01892B91F49C
:1050000062E070E0C50109DEEC01892B59F4C701AB
:10501000DBDB8091A7059091A80501969093A805E8
:105020008093A70590E080E0EDDDCE01DF91CF9188
:105030001F910F91FF90EF90DF90CF90BF90AF90B6
:105040000895CFEFDFEFF1CFC9EFDFEFEECF6F9233
:105050007F928F929F92AF92BF92CF92DF92EF9208
:10506000FF920F931F93CF93DF9300D000D0CDB763
:10507000DEB7009709F47AC04115510509F476C0EE
:105080002091A20507EF1FEF222309F44DC03A013A
:105090007B015C0164E070E0CE01019650DE8C0182
:1050A000892B09F041C009811A810115110509F404
:1050B0005AC0480186E0880E911CB701680D791D21
:1050C00080914301909144010BDD6C01009709F43C
:1050D00050C0A70170E060E00E94E53289819A81AA
:1050E000AB81BC81EC0CFD1CF70181939193A193E2
:1050F000B1937F0181E090E085DDB801C7011FDE3B
:10510000892B31F562E070E0C701800F911F17DE37
:105110008C01892BE9F490E080E074DDF501D18207
:10512000C082F30191828082C8010F900F900F908E
:105130000F90DF91CF911F910F91FF90EF90DF9033
:10514000CF90BF90AF909F908F907F906F90089579
:1051500090E080E057DDF50111821082F3011182A9
:105160001082C60131DB09EF1FEFDECF0FEF1FEF1B
:10517000DBCF06EF1FEFD8CF0097A1F04115510507
:1051800089F02115310571F0F90136966E177F0708
:1051900048F0DC012D933C93DA01ED93FC9390E011
:1051A00080E008958FEF9FEF0895AF92BF92CF9266
:1051B000DF92EF92FF920F931F93CF93DF930097AD
:1051C00009F45FC04115510509F45BC065307105F4
:1051D00008F457C02091A205C7EFDFEF222391F119
:1051E000DC01CD90DC9011971296ED91FC91960127
:1051F0002A5F3F4FC9EFDFEF2617370719F5C09138
:10520000A305D091A405209749F521E030E0309323
:10521000A4052093A3057A018C01F093A605E093E1
:10522000A5055601B4E0AB0EB11CB50176DE0A0D42
:105230001B1DF801208131818217930729F5D701C1
:10524000CD92DC92CE01DF91CF911F910F91FF9013
:10525000EF90DF90CF90BF90AF9008952091A5057B
:105260003091A6052F5F3F4FCCEFDFEFE217F3073A
:1052700090F2CBEFDFEF2E173F0768F2D0E0C0E0EF
:10528000CACFCFEFDFEFDECFC3EFDFEFDBCF84E0BE
:1052900090E0089582E090E008958CEF9FEF0895EC
:1052A00080E290E008951092A8051092A705109250
:1052B000A6051092A5051092A4051092A30590E0F2
:1052C00080E0089590934401809343010895809174
:1052D000A205882391F0C5DD009789F41092A805F6
:1052E0001092A7051092A6051092A5051092A4058C
:1052F0001092A3051092A205089590E080E0089511
:10530000009749F06115710531F0FC01118210829E
:10531000FB01118210820895F3CF26E030E040E0D7
:1053200052EC61E070E090E080E000C01092AA05CD
:105330001092A90589309105E8F48E55964DFC012F
:105340000C94BD32AB29B429BB29BE29C129C4297B
:10535000C729CA29D02981E090E09093AA058093BB
:10536000A9058DEB95E0B2C782E090E09093AA0585
:105370008093A905089584E090E0F8CF88E090E05C
:10538000F5CF80E190E0F2CF80E290E0EFCF80E4D3
:1053900090E0ECCF80E890E09093AA058093A90577
:1053A0008091A9059091AA059160E0CF1F920F927C
:1053B0000FB60F9211242F933F934F935F936F93E8
:1053C0007F938F939F93AF93BF93EF93FF938FE858
:1053D0009DEF9093850080938400B7D0FF91EF916B
:1053E000BF91AF919F918F917F916F915F914F91FD
:1053F0003F912F910F900FBE0F901F9018958FE83F
:105400009DEF9093850080938400AFE6B0E08C918F
:105410008E7F8C93E0E8F0E080818C7F8083E1E8F0
:10542000F0E08081877E80838081846080838081BA
:105430008C7F80838C9181608C930895EFE6F0E0FF
:10544000808190819E7F90838170089581E008958E
:105450001092AB05089568EE73E080E090E0CBD445
:1054600090E080E0089526E030E040E052EC61E01A
:1054700070E090E080E05ADF8DEB95E05DD6892BFF
:1054800021F08DEB95E072D6F7CF90E080E00895A3
:10549000CF92DF92EF92FF920F931F93CF93DF9300
:1054A0006B017A01E901198218828DEB95E044D6EF
:1054B000892B69F18601CC24C39482E0D82E809197
:1054C000AB05811110C08DEB95E050D60297B9F76E
:1054D000C092AB05F801D1928F0188819981019624
:1054E00099838883ECCF888199818E159F0578F404
:1054F0008DEB95E03BD68F3F9807A9F3F801819398
:105500008F0188819981019699838883ECCF90E0FF
:1055100080E0DF91CF911F910F91FF90EF90DF908E
:10552000CF9008950F931F93CF93DF93EA018901E2
:105530008DEB95E0AFD7F801D183C08390E080E098
:10554000DF91CF911F910F910895CF92DF92EF924B
:10555000FF920F931F93CF93DF9300D01F92CDB78D
:10556000DEB78091AF0591E0980F9093AF05882347
:10557000A1F021E030E03093B3052093B205809391
:10558000AF050F900F900F90DF91CF911F910F916A
:10559000FF90EF90DF90CF900895CE0101960E948A
:1055A000EC06789400915D0110915E01F801E556DA
:1055B000FF4FC080D180E280F3800E94F406B701E3
:1055C000A60181E090E00E948C04F8948091AF05E0
:1055D00081508093AF058B81882389F08091AE053F
:1055E00091E0980F9093AE05882349F021E030E0D8
:1055F0003093B3052093B2058093AE05C2CF80915E
:10560000AE05882309F4BDCF8091B0058111B9CFD3
:105610008091B1058F5F8093B1057894F801E955C9
:10562000FF4F2081318142815381AAE0B0E0BAD797
:105630006B017C010E943A09B701A60182E090E06B
:105640000E948C04F8948091AE0581508093AE0541
:105650008091B10581508093B10593CF0F931F9333
:10566000CF93DF931092DD061092DC06FAD355DE5D
:10567000C0915D01D0915E01198218826FEF7FEFBA
:10568000CB010E94100570E060E090E080E00E9495
:105690008C03009709F042C00E945E09F894789448
:1056A0008A819B81BC01685F7F4F0E948F03892B99
:1056B00071F46FEF7FEFCB010E9421040E940A0575
:1056C000882329F081E0FE01EC54FF4F8083F89499
:1056D00096DE0E940D05882311F080E00BC00E9429
:1056E0000A058111FACF81E0FE01EC54FF4F908151
:1056F0009111F3CF8093DC0678940E949F118C0166
:105700007894CC54DF4F8091DC0681110CC00E944C
:10571000890A0E94EE04F89490E080E0DF91CF9136
:105720001F910F9108950E94EC040E940D0588239B
:10573000D9F081E08093DD069091DD0681E0911142
:1057400080E08093DC068091DD06811177DE0130F8
:10575000110529F40E949F11892B09F479DE0E941A
:105760009F118C0173DECFCF0E940A058111E1CF1A
:1057700081E098819111DECF80E0DCCF5058BB27CB
:10578000AA270ED075C166D130F06BD120F031F46C
:105790009F3F11F41EF45BC10EF4E095E7FB51C18D
:1057A000E92F77D180F3BA1762077307840795074B
:1057B00018F071F49EF58FC10EF4E0950B2EBA2F00
:1057C000A02D0B01B90190010C01CA01A001112407
:1057D000FF27591B99F0593F50F4503E68F11A16B3
:1057E000F040A22F232F342F4427585FF3CF469544
:1057F00037952795A795F0405395C9F77EF41F1666
:10580000BA0B620B730B840BBAF09150A1F0FF0F2F
:10581000BB1F661F771F881FC2F70EC0BA0F621F1B
:10582000731F841F48F4879577956795B795F7950B
:105830009E3F08F0B3CF9395880F08F09927EE0F9D
:10584000979587950895D9D008F481E008950CD0F4
:105850000FC107D140F0FED030F021F45F3F19F0C6
:10586000F0C0511139C1F3C014D198F39923C9F391
:105870005523B1F3951B550BBB27AA276217730756
:10588000840738F09F5F5F4F220F331F441FAA1F0A
:10589000A9F333D00E2E3AF0E0E830D091505040CA
:1058A000E695001CCAF729D0FE2F27D0660F771F78
:1058B000881FBB1F261737074807AB07B0E809F05A
:1058C000BB0B802DBF01FF2793585F4F2AF09E3FEF
:1058D000510568F0B6C000C15F3FECF3983EDCF3C1
:1058E000869577956795B795F7959F5FC9F7880F68
:1058F000911D9695879597F90895E1E0660F771FBA
:10590000881FBB1F621773078407BA0720F0621B4A
:10591000730B840BBA0BEE1F88F7E095089504D043
:105920006894B111D9C00895BCD088F09F5790F009
:10593000B92F9927B751A0F0D1F0660F771F881FB4
:10594000991F1AF0BA95C9F712C0B13081F0C3D0CF
:10595000B1E00895C0C0672F782F8827B85F39F06D
:10596000B93FCCF3869577956795B395D9F73EF413
:1059700090958095709561957F4F8F4F9F4F0895BB
:10598000E89409C097FB3EF49095809570956195D9
:105990007F4F8F4F9F4F9923A9F0F92F96E9BB278F
:1059A0009395F695879577956795B795F111F8CF0B
:1059B000FAF4BB0F11F460FF1BC06F5F7F4F8F4F76
:1059C0009F4F16C0882311F096E911C0772321F06C
:1059D0009EE8872F762F05C0662371F096E8862F04
:1059E00070E060E02AF09A95660F771F881FDAF75B
:1059F000880F9695879597F90895990F0008550F88
:105A0000AA0BE0E8FEEF16161706E807F907C0F044
:105A100012161306E407F50798F0621B730B840B4C
:105A2000950B39F40A2661F0232B242B252B21F426
:105A300008950A2609F4A140A6958FEF811D811DC6
:105A4000089597F99F6780E870E060E008959FEF00
:105A500080EC089500240A94161617061806090605
:105A6000089500240A9412161306140605060895D4
:105A7000092E0394000C11F4882352F0BB0F40F45C
:105A8000BF2B11F460FF04C06F5F7F4F8F4F9F4F9C
:105A9000089557FD9058440F551F59F05F3F71F01E
:105AA0004795880F97FB991F61F09F3F79F0879585
:105AB0000895121613061406551FF2CF4695F1DF0E
:105AC00008C0161617061806991FF1CF869571059E
:105AD000610508940895E894BB2766277727CB01D2
