:1000000061C000000C94DF2F0C94063083C0000008
:1000100081C000007FC000007DC000007BC00000E8
:1000200079C0000077C0000075C0000073C00000F8
:1000300071C000000C942B2C6DC000006BC0000040
:100040000C942D3067C000000C943F330C94713336
:1000500061C000005FC000005DC000005BC0000028
:1000600059C0000057C00000000000080002010055
:100070000003040700000000000000000102040863
:100080001020408001020408102001020408102002
:10009000040404040404040402020202020203032E
:1000A00003030303000000002300260029000000D2
:1000B0000000250028002B0000000000240027007D
:1000C0002A00963311241FBECFEFD8E0DEBFCDBF8C
:1000D00012E0A0E0B1E0E0EBF8E602C005900D927E
:1000E000A631B107D9F727E0A6E1B2E001C01D9221
:1000F000AC30B207E1F710E0C2E6D0E004C02197CF
:10010000FE010E942734C136D107C9F70E94132D82
:100110000C94563475CFCF93DF93882349F0EB01CD
:1001200081500E940D3199838883DF91CF9108958A
:10013000FB0111821082F9CF0F931F938B019C0159
:1001400083E036952795179507958A95D1F7015E37
:100150001D4F462F477021E030E0F90102C0EE0F3D
:10016000FF1F4A95E2F7AF01F80120812423CB015C
:100170000196211102C090E080E01F910F91089537
:100180000F931F938B019C0183E03695279517955C
:1001900007958A95D1F7677081E090E001C0880FDC
:1001A0006A95EAF7F801E15EFD4F2081452B31F4B5
:1001B0008095822380831F910F910895822BFACF1F
:1001C000CF92DF92EF92FF92CF93DF936B017C018E
:1001D00060E08EE0C816D104E104F10490F48EE0F2
:1001E0008C0D0E94AC31E6012196AE01C701B6012B
:1001F000C7DFCE01DF91CF91FF90EF90DF90CF90DE
:1002000008958C2DEECF882341F08150682F70E047
:1002100090E080E050E040E0B3CF0895611102C06B
:100220000C94AC316130E1F362E0FACF662319F04F
:1002300061E00C94E83160E0FCCFFC01A781B0855F
:100240008C9191858923A481B5819C9140815181B4
:10025000628173812681922359F081110BC04F5F17
:100260005F4F6F4F7F4F4083518362837383089545
:100270008111F5CF4150510961097109F4CF89E22B
:1002800092E0DBCF84E392E0D8CF8FE392E0D5CF4A
:100290008AE492E0D2CFFC01A481B5818C91968151
:1002A0008923A781B0859C914081518162817381AE
:1002B0002185922359F0882359F04F5F5F4F6F4F8C
:1002C0007F4F408351836283738308958823A9F30A
:1002D0004150510961097109F4CF89E292E0DBCF05
:1002E00084E392E0D8CF8FE392E0D5CF8AE492E026
:1002F000D2CF0F931F93CF93DF93082F162FEA01CE
:10030000A09128028BE0A89FD0011124A75DBD4FCA
:100310001D921D921D921C92139781E01A968C9348
:100320001A97802F90E0FC01E458FF4FE491169655
:10033000EC931697FC01E057FF4FE491F0E0EE0FCD
:10034000FF1FEC55FF4F8591949115969C938E93CA
:100350001497862F90E0FC01E458FF4FE491199622
:10036000EC931997FC01E057FF4FE491F0E0EE0F9A
:10037000FF1FEC55FF4F8591949118969C938E9397
:10038000179760E0802F0E94AC3160E0812F0E94BF
:10039000AC3180912802813081F1A0F0823009F4E3
:1003A00045C0833009F45BC08091280291E0980F2A
:1003B00090932802888390E080E0DF91CF911F9195
:1003C0000F91089580E0023021F08FEF033009F49F
:1003D00081E041E050E06FE371E00E94BF2F80E0D8
:1003E000123021F08FEF133009F481E041E050E04A
:1003F0006DE671E00E94BF2FD7CF80E0023021F080
:100400008FEF033009F481E041E050E062E471E0F5
:100410000E94BF2F80E0123021F08FEF133009F4DB
:1004200081E041E050E060E771E0E4CF80E002303D
:1004300021F08FEF033009F481E041E050E065E402
:1004400071E00E94BF2F80E0123021F08FEF133057
:1004500009F481E041E050E063E771E0CBCF80E058
:10046000023021F08FEF033009F481E041E050E0E9
:1004700068E471E00E94BF2F80E0123021F08FEF1E
:10048000133009F481E041E050E066E771E0B2CF5B
:100490009BE0899FF0011124E75DFD4F80819181F0
:1004A000A281B381FB0180839183A283B38390E017
:1004B00080E008959BE0899FF0011124E75DFD4FE6
:1004C000108211821282138290E080E0089590E001
:1004D00080E00895CF93282F8823E1F0CB01BA0163
:1004E000CFEFC20FEC2FF0E0EB5AFD4F208121300F
:1004F00059F490580E94792E9B01AC016C2F70E04A
:1005000090E080E0CF91A2C00E94742E8C2FCF91FA
:100510000C942831CF9108950F931F938B019C0168
:1005200083E036952795179507958A95D1F70A5E4A
:100530001D4F462F477021E030E0F90102C0EE0F59
:10054000FF1F4A95E2F7AF01F80120812423CB0178
:100550000196211102C090E080E01F910F91089553
:100560000F931F938B019C0183E036952795179578
:1005700007958A95D1F7677081E090E001C0880FF8
:100580006A95EAF7F801EA5EFD4F2081452B31F4C8
:100590008095822380831F910F910895822BFACF3B
:1005A0004F925F926F927F928F929F92AF92BF9283
:1005B000CF92DF92EF92FF920F931F93CF93DF932F
:1005C0004B015C0129013A01670161E0882D0E941D
:1005D000AC31E4012196AE01C501B401C1DF20E0D8
:1005E00030E0A901C801B6010E94572F18168CF4FB
:1005F000F401EB5AFD4F81E08083C801B6010E94EF
:10060000792E6B01C301B2010E94792EA601C401AB
:1006100021D0CE01DF91CF911F910F91FF90EF90EC
:10062000DF90CF90BF90AF909F908F907F906F9012
:100630005F904F900895882341F08150682F70E0BB
:1006400090E080E050E040E08BCF0895862FB90124
:100650000C9428319C01FC01E859FF4FE491E330F0
:1006600061F140F4E13011F1E23021F160E0822FDC
:100670000C94E831E730C1F1E83009F441C0E430CE
:10068000A9F7809180008C7F826080938000909198
:100690008100907E9061692B609381005093870068
:1006A000409386008091800080621BC084B5806882
:1006B00084BDDCCF84B58062FBCF809180008C7FCD
:1006C00082608093800090918100907E9061692B80
:1006D0006093810050938700409386008091800052
:1006E000806880938000C2CF8091B0008068809342
:1006F000B0008091B100887F682B6093B100B6CFC5
:100700008091B0008062F3CF90E080E008950F9375
:100710001F93009709F48AC06115710509F486C01A
:1007200000914A0110914B0120914C0130914D01F3
:100730000E3F1F4F2F4F3F4F09F06AC0DB014D9115
:100740005D916D917C9140934A0150934B01609370
:100750004C0170934D0140914A0150914B016091C1
:100760004C0170914D01DC011296ED91FC9180815C
:100770009181A281B38180939D0390939E03A09366
:100780009F03B093A00384819581A681B781809354
:10079000990390939A03A0939B03B0939C03808545
:1007A0009185A285B3858093950390939603A0933A
:1007B0009703B093980384859585A685B785809324
:1007C000910390939203A0939303B0939403109298
:1007D0008D0310928E0310928F03109290030E944B
:1007E000EE0F83E190E190936A0280936902909307
:1007F0006C0280936B020E94DD0E009731F421E0C1
:1008000030E03093A2032093A1031F910F9108952C
:1008100000914A0110914B0120914C0130914D0102
:10082000FB01008311832283338395CF8FEF9FEFEA
:10083000ECCF8F929F92AF92BF92CF92DF92EF92C6
:10084000FF921F93CF93DF934B015C011091A403A0
:1008500082E090E09093A2038093A103811491041D
:10086000A104B10441F48091A403811104C08091DA
:10087000A303C1E08111C0E0C12CD12C760180918D
:10088000A403811106C08091A303811102C0CC236F
:10089000D9F083E090E09093A2038093A103CC234E
:1008A00081F1CCE9DFEF111102C00E947813CE0173
:1008B000DF91CF911F91FF90EF90DF90CF90BF908D
:1008C000AF909F908F9008956AE070E080E090E094
:1008D0000E949C3080E1C80E87E2D81EE11CF11C0A
:1008E0008FEF88169806A806B80631F0C1E08C1480
:1008F0009D04AE04BF0408F0C0E080E00E94110F28
:10090000BECFD0E0C0E0CFCFCF92DF92EF92FF9288
:100910000F931F93CF93DF938F3F910511F008F052
:1009200051C02091A1033091A2032330310539F049
:100930002091A1033091A2032130310531F424E04C
:1009400030E03093A2032093A1036A017B01EC0104
:1009500082309105A8F011E0AE01C701B6010E94F6
:10096000DC0EAB01BC01CE011123F9F0DF91CF9178
:100970001F910F91FF90EF90DF90CF900C949D15F9
:100980008C01000F111F07591D4FD8018D919C91AB
:10099000892B09F30E94A7150297E9F6D801ED917A
:1009A000FC91CE010995182FD7CF0E94BF1590E07A
:1009B00080E0DF91CF911F910F91FF90EF90DF903A
:1009C000CF9008958FEF9FEFF4CF80E00C94110F3C
:1009D000CF93DF9386E090E09093A2038093A103EE
:1009E0000E946A0FEC01E9E6F2E084E0DF011D926B
:1009F0008A95E9F70E9410131092A2031092A103A6
:100A0000CE01DF91CF9108958091A3030895809145
:100A10008C03089560934A0170934B0180934C01BD
:100A200090934D0190E080E00895E0911803F091DB
:100A300019038091A2069091A306A091A406B091FB
:100A4000A50680839183A283B38308952F923F925A
:100A50004F925F926F927F928F929F92AF92BF92CE
:100A6000CF92DF92EF92FF920F931F93CF93DF937A
:100A7000CDB7DEB76B970FB6F894DEBF0FBECDBF14
:100A800080916303909164038130910509F09BC1CB
:100A900060914F03709150038091510390915203E4
:100AA0006F5F7F4F8F4F9F4F0E94A52E2091530362
:100AB0003091540340915503509156030E945B2F8F
:100AC0006093990270939A0280939B0290939C0288
:100AD0008091C80681111092C806BE016F5F7F4FDA
:100AE0008091C906D5DC69817A818B819C810E94C5
:100AF000A72E2091140130911501409116015091BB
:100B000017010E945B2F6B8B7C8B8D8B9E8B609370
:100B1000A6067093A7068093A8069093A906E09175
:100B20006603F0916703408051806280738010916A
:100B3000D6060091D7063090D8062090D906A3019A
:100B40009201612F702F832D922D0E94572F87FDC8
:100B50000EC0A30192016091DE067091DF068091C4
:100B6000E0069091E1060E94572F87FF54C18091C3
:100B7000DE068F839091DF069B87A091E006AD870C
:100B8000B091E106B98B9C01AD01612F702F832DCF
:100B9000922D0E94082EA301920187FF2BC16F8125
:100BA0007B858D8599890E94082E87FD2BC18090B9
:100BB000DA069090DB06A090DC06B090DD061F837D
:100BC0000B873D86298A2F813B854D855989C30135
:100BD000B2010E94A32D2B013C01A50194016B8958
:100BE0007C898D899E890E94A32DA30192010E9478
:100BF0000C2E209118013091190140911A01509149
:100C00001B010E945B2F20911C0130911D0140911E
:100C10001E0150911F010E945B2F2B013C0140924D
:100C20008A0650928B0660928C0670928D062090F8
:100C3000630330906403E1E02E16310409F058C1DB
:100C400020912001309121014091220150912301F6
:100C500060912401709125018091260190912701D6
:100C60000E945B2F60938E0670938F068093900690
:100C70009093910640929206509293066092940649
:100C800070929506609396067093970680939806E7
:100C900090939906209182063091830640918406B4
:100CA00050918506609104017091050180910601C3
:100CB000909107010E94A32D209110013091110104
:100CC00040911201509113010E94082E1816A4F0B1
:100CD00011E0209108013091090140910A015091E1
:100CE0000B0160910C0170910D0180910E019091AA
:100CF0000F010E94082E87FF10E01B8F6EE070E04E
:100D000080E090E019DA9093B1068093B00643E05A
:100D100050E0BE016B5F7F4FFED9209148013091BA
:100D20004901AD81BE810E942D340E94A52E20E094
:100D300030E040E054E30E945B2F20912801309185
:100D4000290140912A0150912B010E94A32D20914D
:100D50002C0130912D0140912E0150912F010E94C4
:100D60005B2F2091000130910101409102015091CF
:100D700003010E945B2F6B017C018091ED068823AB
:100D800009F45EC0C092D206D092D306E092D40697
:100D9000F092D506409034015090350160903601B4
:100DA00070903701A7019601C301B2010E94082E7D
:100DB00087FF35C04092D2065092D3066092D40687
:100DC0007092D5063DC0892B09F082CEE091C90210
:100DD000F091CA020190F081E02D80819181A28181
:100DE000B381E0916603F091670380839183A283CE
:100DF000B3836ECE612F702F832D922D0E94572FBB
:100E000087FDD5CE8090E2069090E306A090E406A0
:100E1000B090E506D8CE60E070E0CB01EACE40901D
:100E200038015090390160903A0170903B01A70160
:100E30009601C301B2010E94572F18160CF4BACFC5
:100E4000111104C08091EC06882389F1C092D2066A
:100E5000D092D306E092D406F092D50640903401A9
:100E6000509035016090360170903701A7019601CE
:100E7000C301B2010E94082E87FF09C04092D2062A
:100E80005092D3066092D4067092D50610C040905E
:100E900038015090390160903A0170903B01A701F0
:100EA0009601C301B2010E94572F18163CF34090DF
:100EB000D2065090D3066090D4067090D5068090EC
:100EC0003C0190903D01A0903E01B0903F01A501F2
:100ED0009401C301B2010E94572F18160CF0AAC149
:100EE00080929A0690929B06A0929C06B0929D06D4
:100EF00040908A0650908B0660908C0670908D060C
:100F0000A301920160918E0670918F0680919006E8
:100F1000909191060E94A32D6093A2067093A30660
:100F20008093A4069093A50625EF3BED42E251E4A1
:100F300060919A0670919B0680919C0690919D0607
:100F40000E945B2F4B015C0128EF33E543E65EE333
:100F5000C301B2010E945B2F9B01AC01C501B4012A
:100F60000E94A42D2B013C0120E73EEC48E85CE305
:100F70006091EE067091EF068091F0069091F10677
:100F80000E945B2F9B01AC01C301B2010E94A42D02
:100F90002B013C0120E030E0A9010E94572F87FD82
:100FA00062C140929E0650929F066092A006709287
:100FB000A10620E030E040E451E460919E0670918B
:100FC0009F068091A0069091A1060E94082E1816F7
:100FD00064F480E090E0A0E4B1E480939E069093F6
:100FE0009F06A093A006B093A10640909E06509045
:100FF0009F066090A0067090A10620E030E040E4DB
:1010000051E4C301B2010E94572F18160CF434C1E9
:1010100011E020E030E0A901C301B2010E94572F86
:1010200018160CF010E0612F85E000D960E086E032
:10103000FDD86BE070E080E090E06EDA4C019093B8
:10104000D1068093D00620E030E04AEA51E4C301A3
:10105000B2010E945B2F2B013C0120E030E04FE702
:1010600053E40E94082E18160CF40BC120E030E067
:10107000A901C301B2010E94572F87FD09C1B30125
:10108000A201C40127DA2A94232809F056C08090CF
:10109000040190900501A0900601B0900701A50100
:1010A00094016091820670918306809184069091EC
:1010B00085060E94572F87FDEFC080908206909092
:1010C0008306A0908406B090850620E030E0A90158
:1010D000C501B4010E94082E412C512C320181110E
:1010E00006C0412C512C80E8682E85E2782E209194
:1010F0009A0630919B0640919C0650919D06C7012F
:10110000B6010E94A32D6B017C01A3019201C501D0
:10111000B4010E94A42D9B01AC0160E070E080E866
:101120009FE30E940C2E9B01AC01C701B6010E94F7
:101130005B2F6F8B788F898F9A8F8091630390914B
:101140006403019709F0FAC08091D6069091D70602
:10115000A091D806B091D9068F839887A987BA87BE
:101160004090FA065090FB066090FC067090FD06D9
:10117000E0916603F0916703C080D180E280F38044
:10118000A3019201BC01CD010E94082E811192C0E1
:10119000C092D606D092D706E092D806F092D90631
:1011A000EAEDF6E08091A6069091A706A091A80628
:1011B000B091A90680839183A283B3831092ED0638
:1011C0002091300130913101409132015091330131
:1011D0006F89788D898D9A8D0E945B2F2091D20620
:1011E0003091D3064091D4065091D5060E94A42D8B
:1011F0006B017C01C092D206D092D306E092D40655
:10120000F092D5068090340190903501A09036017F
:10121000B0903701A50194010E94572F18160CF0C9
:101220006FC08092D2069092D306A092D406B0925C
:10123000D50676C08090400190904101A090420177
:10124000B0904301A5019401C301B2010E94082E90
:1012500087FD46CE40929A0650929B0660929C066D
:1012600070929D0645CE10929E0610929F06109297
:10127000A0061092A1069DCE412C512C320160E0B7
:10128000D3CE412C512C9FE7692E93E4792EF7CED3
:10129000412C512C3201F3CEC501B4018AD4811105
:1012A0000CCF8090040190900501A0900601B090B1
:1012B00007010BCF8090DE069090DF06A090E0063D
:1012C000B090E106A5019401C301B2010E94082E6D
:1012D00081110BC0C092DE06D092DF06E092E006DC
:1012E000F092E106E2EEF6E05DCFA50194016F8198
:1012F000788589859A850E94082E87FFEBCF48CF95
:101300008090380190903901A0903A01B0903B0153
:10131000A5019401C701B6010E94082E87FD81CF67
:101320009B8D9093EC064091570350915803609128
:10133000590370915A0381E090E0E6DAA0916303CB
:10134000B0916403BC8BAB8B119709F07BC1E0912A
:10135000C902F091CA020190F081E02D8081918153
:10136000A281B3818D879E87AF87B88B80919902C8
:1013700090919A02A0919B02B0919C028F8B988FC2
:10138000A98FBA8FE0919D02F0919E02C080D1801A
:10139000E280F380E091CD02F091CE02A081B18194
:1013A000B887AF83E0919102F09192022080318062
:1013B00002811381848195819C878B87A681B78167
:1013C000BA8BA98BE0918F02F0919002118210826A
:1013D00084E0EF81F885D10101900D928A95E1F7C3
:1013E000E091C702F091C802118300831EDB20E068
:1013F00030E040E05FE3C701B6010E945B2F2B01A4
:101400003C01F80120813181428153810E945B2F90
:10141000D1012D913D914D915C910E94A42DEF81C0
:10142000F8856083718382839383E091C902F09190
:10143000CA02A080B180A30192016D857E858F854F
:1014400098890E94A42DD5016D937D938D939C93D3
:101450001397E091C702F091C8028B859C85918318
:101460008083F4DAE2DA20E030E040E45FE3C701B1
:10147000B6010E945B2F2B013C0120E030E0A90166
:10148000C701B6010E945B2FD8012D913D914D916E
:101490005C910E945B2F4B015C01EB85FC852081F8
:1014A000318142815381C301B2010E945B2F9B01B4
:1014B000AC01C501B4010E94A42DD1012D913D9133
:1014C0004D915C910E94A42DEF81F885608371831A
:1014D00082839383E091C902F091CA02A080B18017
:1014E000A30192016D857E858F8598890E94A42D28
:1014F000D5016D937D938D939C931397E091C702D3
:10150000F091C80289899A89918380839FDA8DDA64
:1015100029E33EE843E65EE3C701B6010E945B2F84
:10152000D8012D913D914D915C910E945B2F4B0113
:101530005C012BEA3AEA4AEA5EE3C701B6010E947F
:101540005B2FEB85FC8520813181428153810E9494
:101550005B2F9B01AC01C501B4010E94A42D4B017E
:101560005C0129E33EE843EE5EE3C701B6010E9459
:101570005B2FA989BA892D913D914D915C910E9473
:101580005B2F9B01AC01C501B4010E94A42DF101A8
:1015900020813181428153810E94A42DAF81B88581
:1015A0006D937D938D939C931397E091C902F09175
:1015B000CA020190F081E02D8F89988DA98DBA8D96
:1015C00080839183A283B383E0918F02F091900294
:1015D000AB89BC89B183A08380914F039091500364
:1015E000A0915103B09152030196A11DB11D8093AA
:1015F0004F0390935003A0935103B09352038091F3
:10160000990290919A02A0919B02B0919C02E09164
:101610006603F091670380839183A283B3838091F3
:10162000570390915803A0915903B0915A03019622
:10163000A11DB11D8093570390935803A0935903A4
:10164000B0935A036B960FB6F894DEBF0FBECDBFB2
:10165000DF91CF911F910F91FF90EF90DF90CF908E
:10166000BF90AF909F908F907F906F905F904F90C2
:101670003F902F9008958F929F92AF92BF92CF92FA
:10168000DF92EF92FF920F931F93CF93DF9384E04B
:1016900090E03ED24091FA065091FB066091FC0624
:1016A0007091FD06E0E0F1E044AB55AB66AB77AB83
:1016B0008091020790910307A0910407B09105075C
:1016C00080AF91AFA2AFB3AF44AF55AF66AF77AFC6
:1016D0008093400190934101A0934201B093430154
:1016E000E9E8F2E083E693E097838683C6E6D3E0F9
:1016F000D093CA02C093C90223E5C22E23E0D22EA2
:10170000D58AC48A28E133E037AF26AF02E113E07F
:101710001093CE020093CD0227E433E03093CC0245
:101720002093CB0229E433E03093D0022093CF0200
:1017300024E133E03093D2022093D10226E133E05A
:101740003093D4022093D3022AE133E03093100384
:1017500020930F03F093F402E093F302F583E48304
:10176000AA24A394B12CDC01AD92BC9210920A037E
:10177000109211038FE293E0BFE1AB2EB3E0BB2EDA
:10178000DC01AD92BC92A3E2AA2EA3E0BA2EB092E5
:101790003203A0923103B7E2AB2EB3E0BB2EB0927E
:1017A0003403A0923303ABE2AA2EA3E0BA2EB09288
:1017B0003603A0923503BEEEAB2EB6E0BB2ED801A9
:1017C000AD92BC9201E816E0D9010D931C931092E2
:1017D0005B0310925C0310925D0310925E0391878D
:1017E000808788E791E09387828788E693E09983F2
:1017F000888300E010E020E83FEB00935F03109344
:1018000060032093610330936203CFE68C2EC2E124
:101810009C2EC3E8AC2ECAE3BC2ED6018D929D92BD
:10182000AD92BC921397C7E3D3E081E197E0AAE4BD
:10183000B5EB88839983AA83BB838EEA9EE8ADEDDE
:10184000B6E280933B0390933C03A0933D03B09397
:101850003E038EEE97ECABE7BBE980933F0390939A
:101860004003A0934103B093420380ED93E3AFE2C2
:10187000B4E38093430390934403A0934503B09350
:101880004603ADE7B2E0B383A283EDE6F2E0119642
:10189000FC93EE938DE791E0918380839383828321
:1018A00095838483978386839187808793878287B4
:1018B00095878487978786878DE493E015969C9318
:1018C0008E9314971396DC93CE9312970FEF1FEF1E
:1018D000980118960D931D932D933C931B97E2E866
:1018E000F6E080829182A282B382148215821682EF
:1018F0001782CAEAD6E04CA75DA76EA77FA74CABBC
:101900005DAB6EAB7FABDD24D394D092ED068091BE
:10191000440190914501A0914601B0914701809307
:10192000EE069093EF06A093F006B093F1061F8E9B
:10193000188E812C912C54018394898E9A8EAB8EB3
:10194000BC8E49EC56E063E082E00E947901DD8EB6
:101950001E8E8F8D0E945A02188289829A82AB82D3
:10196000BC826EE070E080E090E00E94E0009F8327
:101970008E83DD82188A898A9A8AAB8ABC8A61E062
:1019800085E00E940E01DD8A188689869A86AB86DC
:10199000BC8661E086E00E940E01DD8618A289A265
:1019A0009AA2ABA2BCA2E12CF12C8701A80197015D
:1019B0006BE070E080E090E00E94D0029FA38EA3D5
:1019C000DDA2DF91CF911F910F91FF90EF90DF90FB
:1019D000CF90BF90AF909F908F9008958091C20656
:1019E000811114C081E08093C2068091C30690915A
:1019F000C406A091C506B091C6060197A105B10520
:101A000029F48091C70681110E9467028091AA067D
:101A100081111FC081E08093AA068091AB0690914E
:101A2000AC06A091AD06B091AE060197A105B10537
:101A300081F48091AF06882361F06EE070E080E071
:101A400090E00E949C009093B1068093B0060E94A3
:101A500003018091BA06811103C081E08093BA0628
:101A60008091B206811103C081E08093B20680911B
:101A7000CA0681112EC081E08093CA068091CB06F0
:101A80009091CC06A091CD06B091CE060197A1050C
:101A9000B105F9F48091CF068823D9F06BE070E0AE
:101AA00080E090E00E948C029093D1068093D00653
:101AB00040E050E0BA010E946A026BE070E080E012
:101AC00090E00E948C029093D1068093D0060C94F3
:101AD0001B03089560E070E080E89FE7089560E0F0
:101AE00070E080E89FE7089560E070E080E89FEF95
:101AF000089560E070E080E89FEF089560E070E096
:101B000080EC9FEF089560E070E080EC9FEF089517
:101B1000F5DF6093FE067093FF06809300079093B5
:101B20000107F1DF6093F2067093F3068093F406E9
:101B30009093F506CFDF6093FA067093FB068093CF
:101B4000FC069093FD06CBDF6093F6067093F706D4
:101B50008093F8069093F906C7DF609302077093AD
:101B600003078093040790930507C3DF609306077C
:101B700070930707809308079093090708950F93C0
:101B80001F938B019C010027112720783F770115B7
:101B9000110520483F4749F4AB01BC016F77772717
:101BA00081E0452B462B472B09F480E01F910F91D4
:101BB0000895E5CF4F925F926F927F928F929F929E
:101BC000AF92BF92CF92DF92EF92FF920F931F934B
:101BD000F89440907C0350907D0360907E03709059
:101BE0007F03C0907003D0907103E0907203F09077
:101BF00073034130510509F0A4C09B01AC012419C5
:101C000035094609570929013A01009178031091D5
:101C1000790320917A0330917B0348015901840CA8
:101C2000951CA61CB71C80169106A206B306A0F44C
:101C3000009174031091750320917603309177031E
:101C40000F5F1F4F2F4F3F4F009374031093750387
:101C500020937603309377038092780390927903F0
:101C6000A0927A03B0927B030091740310917503E4
:101C700020917603309177038092800390928103C4
:101C8000A0928203B0928303009384031093850390
:101C9000209386033093870360937C0370937D03C6
:101CA00080937E0390937F03A8EEB3E0A30192019B
:101CB0000E943C346C0D7D1D8E1D9F1D6093700332
:101CC00070937103809372039093730300914A01A0
:101CD00010914B0120914C0130914D010F3F1F4F4E
:101CE0002F4F3F4FF1F000914A0110914B0120918D
:101CF0004C0130914D010E3F1F4F2F4F3F4F89F048
:101D0000C0904A01D0904B01E0904C01F0904D0101
:101D100021E08C149D04AE04BF0408F420E020935D
:101D20008C0378941F910F91FF90EF90DF90CF90EC
:101D3000BF90AF909F908F907F906F905F904F90EB
:101D400008954B015C0184189508A608B708A30103
:101D50009201261B370B480B590B64157505860538
:101D60009705D0F082169306A406B50640F420E04D
:101D700030E0A90181149104A104B10491F4A8EE0A
:101D8000B3E00E943C34A7019601261B370B480B99
:101D9000590BCA01B901C5CF82169306A406B50630
:101DA00070F7A8EEB3E0A50194010E943C346C0DDD
:101DB0007D1D8E1D9F1DB5CFFDCECF93DF9300D02F
:101DC00000D0CDB7DEB71C821B821A821982109216
:101DD00088031092890310928A0310928B03BE012C
:101DE0006F5F7F4FCE0103960E94D52B69817A8168
:101DF0008B819C810E94C724009761F4BE016F5FB4
:101E00007F4FCE0103960E94E12B69817A818B81FD
:101E10009C8129D50F900F900F900F90DF91CF915B
:101E20000895FF920F931F93CF93DF93082F60E0E5
:101E300070E0CB010E949C30FF24F3940E94B223F7
:101E4000EC01892B89F010E0CE3F8FEFD80769F0C5
:101E5000002361F160E070E0CB010E949C3081E0E2
:101E600090E0892B59F322C011E020D5EC01892B99
:101E700021F0CE3F8FEFD80759F711111EC011E0A6
:101E8000229609F410E00E946323EC01892B21F0D3
:101E9000CE3F8FEFD807E1F6111111C011E0CE3F10
:101EA0008FEFD80709F410E001110BC0CE01DF91CC
:101EB000CF911F910F91FF90089511E0E4CF11E0B1
:101EC000F3CF60E070E0CB010E949C301F25812F92
:101ED00090E0C7CFCF93DF9380918C03882321F0CC
:101EE00060E070E0CB0149D632D6D0E0C0E0892B6B
:101EF00071F06AE070E080E090E00E949C3081E048
:101F000090DF25D62196C03D27E0D20781F724D661
:101F10000E941B251092A4031092A30310929D030C
:101F200010929E0310929F031092A00310929903A7
:101F300010929A0310929B0310929C0310929503A7
:101F400010929603109297031092980310929103A7
:101F500010929203109293031092940310928D03A7
:101F600010928E0310928F03109290034EEF5FEF4A
:101F70006FEF7FEF40934A0150934B0160934C0108
:101F800070934D0110928C03E0E8F3E028E0DF014C
:101F90001D922A95E9F710927C0310927D0310920E
:101FA0007E0310927F0310927803109279031092AF
:101FB0007A0310927B0310927403109275031092AF
:101FC00076031092770310927003109271031092AF
:101FD000720310927303DF91CF9108951092B003B2
:101FE0001092B1031092B2031092B3031092AF0398
:101FF0008091B8039091B9039093AE038093AD03A1
:102000001092AC031092AB031092A7031092A80396
:102010001092A9031092AA031092B5031092B40370
:1020200090E080E00895CF92DF92EF92FF920F93BD
:102030001F93CF938C01019709F055C02091B803ED
:102040003091B9038091AD039091AE034091B803F4
:102050005091B9035093AE034093AD03281739074D
:1020600081F01092AC031092AB031092A703109270
:10207000A8031092A9031092AA031092B50310921C
:10208000B4038091B8039091B903019761F58091F1
:10209000B4039091B503892B21F480914E018111F5
:1020A00012C08091B4039091B5030197E1F480913F
:1020B000A7039091A803A091A903B091AA03019747
:1020C000A105B10581F41092A7031092A803109204
:1020D000A9031092AA0310924E0182E090E090931F
:1020E000B5038093B4038091B8039091B90301972D
:1020F00009F01CC18091CE039091CF038017910706
:1021000009F014C18091CA039091CB03A091CC0334
:10211000B091CD03009709F409C12091C9032111A1
:102120000DC04091CA035091CB036091CC037091D4
:10213000CD03452B462B472B09F4F8C02091B4035F
:102140003091B5032230310509F0F0C02091AB0386
:102150002111ECC0FC01C080D180E280F38080912D
:10216000AF03882309F4D3C08091BB039091BC03D3
:10217000892B09F4FEC02091BB033091BC0381E0A0
:102180002230310509F080E02091BB033091BC037F
:10219000C1E02130310549F02091BB033091BC03EF
:1021A000C1E02230310509F0C0E0882309F456C0AF
:1021B0002091C5033091C6034091C7035091C803D5
:1021C000C701B6010E94572F87FD14C02091C50397
:1021D0003091C6034091C7035091C8036091B0038A
:1021E0007091B1038091B2039091B3030E94082EC5
:1021F00087FD22C02091C5033091C6034091C703DB
:102200005091C803C701B6010E94572F181634F524
:102210002091C5033091C6034091C7035091C80374
:102220006091B0037091B1038091B2039091B303B8
:102230000E94082E811112C08091BD039091BE03AF
:10224000A091BF03B091C003892B8A2B8B2B19F46B
:1022500081E08093AC0381E08093AB03CC2309F44D
:1022600056C02091C5033091C6034091C7035091D9
:10227000C803C701B6010E94082E87FF14C0209131
:10228000C5033091C6034091C7035091C8036091C4
:10229000B0037091B1038091B2039091B3030E9497
:1022A000572F87FF22C02091C5033091C60340916C
:1022B000C7035091C803C701B6010E94082E8111BF
:1022C00026C02091C5033091C6034091C7035091A9
:1022D000C8036091B0037091B1038091B2039091F3
:1022E000B3030E94572F181694F48091BD03909168
:1022F000BE03A091BF03B091C003892B8A2B8B2B07
:1023000019F481E08093AC0381E08093AB0381E01A
:102310009091AB03911180E08093AF03C092B00322
:10232000D092B103E092B203F092B30301301105F1
:1023300009F067C18091B4039091B503892BD9F45A
:102340001092BA031092AB0380914E01882379F06A
:1023500082E090E09093B5038093B40310924E0115
:102360002091B8033091B90381E0232BE9F080E09C
:102370001BC081E009CF10924E018091BA038823DF
:1023800049F01092AC031092B5031092B40310926E
:10239000BA03EDCF8091B8039091B903892BE1F096
:1023A0008091AB031092AB032091B4033091B5033D
:1023B0002230310509F45EC088F42115310509F495
:1023C00048C02130310509F4F3C01092AC031092DB
:1023D000AB031092BA0338C081E0E6CF2330310559
:1023E00009F4B1C02430310581F74091A703509121
:1023F000A8036091A9037091AA03411551056105D5
:10240000710561F041505109610971094093A703B9
:102410005093A8036093A9037093AA034091A70364
:102420005091A8036091A9037091AA03452B462BF4
:10243000472BD9F42091B6033091B70321303105F1
:1024400009F046C01092AC031092B5031092B40389
:102450000CC080914E01882341F082E090E090937F
:10246000B5038093B40310924E011092A50380919E
:10247000AC03CEC08823C9F38091BD039091BE0305
:10248000A091BF03B091C003181619061A061B06C7
:102490000CF07DC08091B8039091B903019709F0C9
:1024A00076C08091BD039091BE03A091BF03B0910F
:1024B000C0038093A7039093A803A093A903B093AC
:1024C000AA0383E090E09093B5038093B403CDCF4B
:1024D0004091C1035091C2036091C3037091C40342
:1024E000452B462B472BA9F01092AC038091C103DA
:1024F0009091C203A091C303B091C4038093A7033A
:102500009093A803A093A903B093AA0381E090E05D
:10251000DACF882399F080914F0190915001A091DA
:102520005101B09152018093A7039093A803A09307
:10253000A903B093AA0384E090E0C5CF1092AC0346
:1025400082E090E0C0CF8091A7039091A803A09172
:10255000A903B091AA030097A105B10559F001970D
:10256000A109B1098093A7039093A803A093A9039D
:10257000B093AA038091A7039091A803A091A90307
:10258000B091AA03892B8A2B8B2B09F06ECF8091F7
:102590004F0190915001A0915101B0915201892BAE
:1025A0008A2B8B2B09F44ECF81E08093AC03B3CF01
:1025B0004091A7035091A8036091A9037091AA03C9
:1025C000411551056105710561F0415051096109DD
:1025D00071094093A7035093A8036093A9037093D4
:1025E000AA034091A7035091A8036091A903709199
:1025F000AA03452B462B472B09F037CF8111C7CFB4
:102600009FCF8091A503882309F431CF8091A60341
:10261000CF911F910F91FF90EF90DF90CF90089591
:102620001092B0031092B1031092B2031092B30350
:102630001092AF031092B5031092B4031092AE0340
:102640001092AD031092CF031092CE031092AC0300
:102650001092AB031092A7031092A8031092A90343
:102660001092AA031092A6031092A5031092CA0317
:102670001092CB031092CC031092CD031092C90399
:102680001092C5031092C6031092C7031092C8039C
:1026900088EE93E0A0E0B0E080934F01909350016A
:1026A000A0935101B09352011092C1031092C20342
:1026B0001092C3031092C4031092BD031092BE0384
:1026C0001092BF031092C0031092BC031092BB0380
:1026D00081E080934E011092BA031092B9031092D8
:1026E000B8031092B7031092B60390E080E008950B
:1026F0008091B8039091B903892BE1F480914E0148
:10270000882351F08091BA03811106C081E0809343
:10271000A6038093A50308958091BA03882341F00E
:1027200080914E01811104C01092A60381E0F1CF87
:102730001092A503089582E090E0FA0191838083CE
:102740008FEF9FEF0895CF93DF93EA01009711F089
:102750000E943B261982188290E080E0DF91CF91A1
:102760000895DB01009719F48FEF8C9308952EEFF5
:102770002C9340968031910508F036C0FC01ED5352
:10278000FC4E0C942734F213F013EE13EC13EA13FF
:10279000E813E413E613E213E013DE13DB13D7139D
:1027A000D313D913F41380E311968C93089589E21F
:1027B000FBCF82E2F9CF11961C92089583E2F4CF09
:1027C00081E2F2CF81E1F0CF87E2EECF8AE2ECCF77
:1027D00080E1EACF84E2E8CF88E2E6CF86E2E4CF88
:1027E00081E3E2CF83E3E0CF80E2DECF8091DC03C0
:1027F0009091DD0308959093DD038093DC030895A9
:102800008091DB0308959091DB03892B8093DB0398
:102810000895982F90958091DB0389238093DB03A3
:1028200008958091DA0308958091D8039091D90397
:1028300008956115710559F0FB0130E020E070E06A
:1028400060E02417350719F06115710511F0CB010F
:102850000895A081B181A817B90709F4BF012F5FBE
:102860003F4F3696EECF8091DE0381111CC062D2BD
:1028700068D29093D1038093D0030E943D1E0E94A2
:102880004F1E9093D5038093D4030E94CD220E94C3
:10289000D4229093D3038093D20381E08093DE030C
:1028A00090E080E0089584EF9FEF08958F929F92CB
:1028B000AF92BF92CF92DF92EF92FF920F931F934E
:1028C000CF93DF93CDB7DEB72A970FB6F894DEBF6C
:1028D0000FBECDBF1A86198618861F821E821D82E2
:1028E0001C821B821A8219828091DE0307EF1FEF80
:1028F000882309F49CC08E010D5F1F4F9E012B5F42
:102900003F4FAE01495F5F4FBE01675F7F4F90E071
:1029100080E00E944D248C01009721F005960297DB
:1029200008F0DBC029853A852115310509F402C17B
:10293000ED80FE804B815C81B701640F751F8F8134
:1029400098858617970708F4F5C0E20EF31ED701A5
:102950009C91903C09F07FC04230510508F47BC047
:1029600011968C914091DC035091DD03452B09F4C5
:102970009CC0913F08F071C02CE1290F2D3008F464
:102980008BC02DE2290F203108F489C0903C21F43E
:102990008150823008F483C088E3890F8B3008F4BB
:1029A00081C091EBC92E93E1D92EEBE9F3E16D8162
:1029B0007E81AE014F5F5F4F89859A8509955C01E5
:1029C000C114D104A1F189809A808114910479F114
:1029D0008B819C818815990508F487C010E000E080
:1029E0004B815C8170E060E0C7010E944F340115AB
:1029F0001105E9F449815A8169857A858D819E8125
:102A0000680F791FC501F6010995E980FA800D81EB
:102A10001E812F81388549855A856FEF7FEF81E0D0
:102A200090E00E94E9238C01892B09F056C0C8016F
:102A30002A960FB6F894DEBF0FBECDBFDF91CF91BF
:102A40001F910F91FF90EF90DF90CF90BF90AF90CC
:102A50009F908F90089580E085CF30E020E0220F96
:102A6000331FF901E053FC4F0190F081E02D3097C6
:102A700009F497CF892F90E00995009709F491CF39
:102A8000DC011296ED91FC9113971496CD90DC9099
:102A9000309709F08CCF1FC021E030E0E0CF22E07A
:102AA00030E0DDCF23E030E0DACFD12CC12CE3EAF7
:102AB000F3E19F3F09F07BCFE091D003F091D10388
:102AC000309721F4C90104EF1FEF0CC08FEF90E0A5
:102AD00009950097A9F604EF1FEF89859A8500975D
:102AE00009F4A5CF0E943B26A2CF0E9416258C0197
:102AF00089859A850E943B2670E060E0C4010E94AF
:102B0000AF2498878F830E94E6239E838D836F81F5
:102B100078856115710559F0C8010E94C7279A8709
:102B2000898706EF1FEF892B09F058CF59CF08EF9F
:102B30001FEF56CF08EF1FEFD0CF2091DE032223E7
:102B400019F020E00C94541E87EF9FEF08958091B8
:102B5000DC039091DD0308950E94D9220E94332264
:102B6000F5D0E0EDF3E088E0DF011D928A95E9F70A
:102B70001092DE0390E080E008950C94902021E014
:102B800040E050E0BA010C94541E86E090E0FA0157
:102B90009183808390E080E0089547E050E060E812
:102BA00071E047CEDF92EF92FF920F931F93CF9386
:102BB000DF938A01EC01C60FD71FE090E203F0908B
:102BC000E303D9800E94FE24D816190678F082E02B
:102BD00090E0F801918380838EEF9FEFDF91CF919A
:102BE0001F910F91FF90EF90DF900895EF2841F42F
:102BF00082E090E0F8019183808384EF9FEFEECF35
:102C000089818093E10390E00196F80191838083AC
:102C100090E080E0E3CFCF93DF93EA010E9441216F
:102C2000882321F00E940B250E94422182E090E03F
:102C3000998388838BEF9FEFDF91CF910895CF9396
:102C4000DF93EB0186E0FB0111928A95E9F78FEFA4
:102C50008883D6DD8983E5DD8A83E6DD9D838C83E9
:102C6000DF91CF910895CF93DF93EA010E94442131
:102C7000811109C082E090E09983888385EF9FEFFE
:102C8000DF91CF91089590E080E0B5DD81E090E0A4
:102C90009983888390E080E0F3CF0F931F93CF93C5
:102CA000DF93EA018C01060F171F0E944421811156
:102CB0000BC082E090E09983888385EF9FEFDF91DE
:102CC000CF911F910F910895F8018181823038F0E2
:102CD00082E090E0998388838EEF9FEFF0CF81E0D0
:102CE00090E089DD88E090E09983888390E080E03F
:102CF000E6CFCF93DF930097D1F4EB01FB0132963F
:102D000086E0DF011D928A95E9F78FEF888385E0E1
:102D100089831A820E94FE248B830E94FD249D8356
:102D20008C8381E08E838F83DF91CF910895DF9133
:102D3000CF9117CD8DEC95E19093E0038093DF0365
:102D400008958091DF039091E00308951092E003CD
:102D50001092DF0308958091E2039091E3030895B8
:102D6000411105C0611571058105910561F0609300
:102D7000E2037093E3038093E4039093E5034093AD
:102D8000E60381E0089580E00895FF920F931F937A
:102D9000CF93DF938A01EC01C60FD71FF9800E9401
:102DA000FE24F816190668F082E090E0F80191839D
:102DB00080838EEF9FEFDF91CF911F910F91FF9056
:102DC00008956C817D818E819F814B81C9DF811146
:102DD00008C082E090E0F8019183808384EF9FEF48
:102DE000EACF89818093E10390E00196F801918315
:102DF000808390E080E0DFCFCF93DF93EA01FC0196
:102E0000E60FF71F64817581868197814381A8DF72
:102E1000811109C082E090E09983888384EF9FEF5D
:102E2000DF91CF91089581E090E09983888390E0CD
:102E300080E0F6CFE2EEF3E0408151816281738160
:102E4000480F511D611D711D40835183628373833F
:102E50000895CF93C091E1034C2F50E06091E203BD
:102E60007091E30301960E9446348C2FE3DF1092A9
:102E7000E103CF910895009799F48091E203909136
:102E8000E3032FEFFB012083892B59F02091E1030D
:102E900030E02F5F3F4F2417350719F4CB01D9CF0E
:102EA00060CC0895009799F48091E2039091E30338
:102EB0002FEFFB012083892B59F02091E10330E0B3
:102EC0002F5F3F4F2417350719F4CB01C2CF49CCF0
:102ED000089523E1AC01249FC001259F900D11248A
:102EE000E091EB03F091EC03E80FF91F23813481AB
:102EF0002250310981E02230310508F080E0089548
:102F00000F931F93CF93DF930091ED031091EE0386
:102F1000D0E0C0E080E00C171D0749F491E081117A
:102F200090E0892FDF91CF911F910F91089581112A
:102F3000F5CFCE01CEDF2196EECFA091EB03B0917D
:102F4000EC03109729F12091ED033091EE038217E5
:102F50009307F0F453E1589F9001599F300D1124CD
:102F6000A20FB31FED91FC911197309789F0129643
:102F70008C91681768F48DE0689FE00DF11D1124B5
:102F800080819181892B21F081E09281491708F09D
:102F900080E008959C0143E1429FC001439F900D52
:102FA0001124E091EB03F091EC03E80FF91F838506
:102FB000823091F481E090E0658176814091530107
:102FC000509154016417750711F490E080E0892B4B
:102FD00019F081E0232B09F080E00895FC01A08125
:102FE000B1818DE0689FA00DB11D112413964D9104
:102FF0005C9185859685489F9001499F300D589F2B
:10300000300D1124C9010196611103C0478144FDAF
:1030100004960895EF92FF920F931F93CF93DF933F
:10302000EA01FC01E60FF71F02811381E480F580BD
:103030004F2D6E2DC80181DF81110DC082E090E01F
:10304000998388838EEF9FEFDF91CF911F910F912E
:10305000FF90EF900895C8013CDF882339F082E0AB
:1030600090E09983888388EF9FEFEECF10935A0109
:1030700000935901E0925B01F0925C0181E090E0E5
:103080009983888390E080E0DFCFCF92DF92EF9248
:10309000FF920F931F93CF93DF937A01EC01C60F3A
:1030A000D71FC0905901D0905A0100915B01109137
:1030B0005C01412F602FC60140DF811110C082E00A
:1030C00090E0F701918380838AEF9FEFDF91CF91AA
:1030D0001F910F91FF90EF90DF90CF900895C60160
:1030E000F8DE882341F082E090E0F701918380834D
:1030F00088EF9FEFEBCF4C815D816E817F819A815C
:1031000089818F3F41F082E090E0F70191838083D5
:103110008EEF9FEFDBCFE3E1EC9D9001ED9D300D55
:103120001124E091EB03F091EC03E20FF31F019007
:10313000F081E02D2DE0029FE00DF11D11240190A2
:10314000F081E02D27E0129FE00DF11D1124808316
:1031500091838B81828343835483658376831F5F4E
:1031600010935C0181E090E0F7019183808390E00F
:1031700080E0ACCFEF92FF920F931F93CF93DF933A
:103180007A018C01060F171FC091EB03D091EC035D
:10319000209781F021E030E0F80182819381409115
:1031A000ED035091EE038417950710F030E020E016
:1031B000232B71F482E090E0F701918380838EEFFE
:1031C0009FEFDF91CF911F910F91FF90EF900895A6
:1031D00043E1489F9001499F300D1124C20FD31F36
:1031E00078DE882341F082E090E0F70191838083CC
:1031F00088EF9FEFE6CFF801248135812038310533
:10320000C8F687818111D6CF4181842F90E08F7ECF
:10321000009741F082E090E0F7019183808386EF90
:103220009FEFCFCF4F833E832D832681288719863A
:10323000223010F421E0288721E030E0F7013183CB
:103240002083BFCF88E090E0FA019183808390E0F3
:1032500080E00895FB018FEF808381E181838FEF10
:103260009FEF9383828380E890E095838483168226
:1032700017820895FB018FEF808391E09183828311
:103280009383848384E3858381E090E097838683BE
:10329000089582E090E0FA019183808380EF9FEFB0
:1032A0000895DF92EF92FF920F931F93CF93DF93D6
:1032B000EA01FC01E60FF71F8181813071F082E0A5
:1032C00090E0998388838FEF9FEFDF91CF911F91DB
:1032D0000F91FF90EF90DF90089582819381D480C9
:1032E0002581E680F7800091EB031091EC03011536
:1032F000110539F482E090E0998388838CEF9FEF89
:10330000E4CF4091ED035091EE038417950738F018
:1033100082E090E0998388838EEF9FEFD6CF892B50
:1033200039F082E090E09983888386EF9FEFCDCFDC
:103330008D2D8D7FB1F72130A1F781E0D11006C02E
:1033400091E0E916F10431F080E004C0E2E0EE160D
:10335000F104D0F3882329F390E080E0BADD8823DC
:1033600039F082E090E09983888388EF9FEFADCFBA
:10337000F801D38681E08487F686E586108A178671
:1033800081E090E09983888390E080E09ECF4DE0DB
:1033900050E06AEA71E04DCA8F929F92BF92CF923D
:1033A000DF92EF92FF920F931F93CF93DF93EA0187
:1033B000FC01E60FF71F828193810481B580E091C3
:1033C000EB03F091EC03309791F482E090E0998365
:1033D00088838CEF9FEFDF91CF911F910F91FF902A
:1033E000EF90DF90CF90BF909F908F9008952091A5
:1033F000ED033091EE038217930738F082E090E0FE
:10340000998388838EEF9FEFE6CF23E1289F6001A9
:10341000299FD00C1124EC0DFD1DE080F180E114FA
:10342000F10499F28281081748F78DE0089F800126
:103430001124E00EF11EF70180819181892B29F67C
:10344000BB20E1F2F7E0BF9E40011124C4010E94BD
:103450000226F70191838083E091EB03F091EC0366
:10346000EC0DFD1D0190F081E02DE00FF11F80813A
:103470009181009739F482E090E0998388838DEF01
:103480009FEFA9CFA40170E060E00E944F348091CB
:10349000EB039091EC03C80ED91EF6018081918157
:1034A000080F191FF801B28281E090E099838883A8
:1034B00090E080E090CFAF92BF92CF92DF92FF92E8
:1034C0000F931F93CF93DF93EA01FC01E60FF71FE1
:1034D00082819381F4800091EB031091EC0301153C
:1034E000110581F482E090E0998388838CEF9FEF4F
:1034F000DF91CF911F910F91FF90DF90CF90BF9000
:10350000AF9008952091ED033091EE038217930759
:1035100038F082E090E0998388838EEF9FEFE8CFC8
:103520002FEF2F0D2C3FA8F723E1289F6001299F43
:10353000D00C11240C0D1D1DF80180819181892B67
:1035400089F6FDE0FF9E50011124C5010E9402266C
:10355000F80191838083E091EB03F091EC03EC0D93
:10356000FD1D80819181009739F482E090E099837C
:1035700088838DEF9FEFBCCFA50170E060E00E94D3
:103580004F34E091EB03F091EC03EC0DFD1DF28262
:1035900081E090E09983888390E080E0A9CFCF928A
:1035A000DF92EF92FF920F931F93CF93DF93860FDB
:1035B000971FFC01028113818091EB039091EC0332
:1035C000892B81F082E090E0FA01918380838CEF77
:1035D0009FEFDF91CF911F910F91FF90EF90DF90C0
:1035E000CF900895C801B0E0A0E00197A109B1090A
:1035F0008F3F9F4FA105B10540F082E090E0FA01B6
:10360000918380838EEF9FEFE4CF7A0183E1809FE7
:103610006001819FD00C1124C6010E940226EC019A
:10362000009741F482E090E0F701918380838DEF71
:103630009FEFCFCFA60170E060E00E944F34D0939F
:10364000EC03C093EB031093EE030093ED0390E0C3
:1036500080E02FEF3FEF41E061E070E080179107DD
:1036600041F481E090E0F7019183808390E080E075
:10367000B0CF3A8B298B1B864C877E876D87188A43
:103680001F8601966396EACFEF92FF921F93CF9326
:10369000DF93EC0110E0F12CE12C6A811617A8F001
:1036A00070E0660F771FAE014F5E5F4FC7010E944B
:1036B0006726009721F02FEF3FEF3A8B298BDF91A0
:1036C000CF911F91FF90EF900895612FCE0186DC7E
:1036D00061E070E00E94AF24E816F90608F47C016E
:1036E0001F5FDBCFF8942091E9033091EA0381E07A
:1036F0002115310509F080E0232B09F07894089515
:103700002F923F924F925F926F927F928F929F92F1
:10371000AF92BF92CF92DF92EF92FF920F931F93DF
:10372000CF93DF933C01660E771EF3018281938174
:103730004C01B12CA12CC091EB03D091EC0320974C
:1037400069F021E030E06091ED037091EE0386179F
:10375000970710F030E020E0232BD1F482E090E0D6
:10376000FA01918380838EEF9FEFDF91CF911F91BC
:103770000F91FF90EF90DF90CF90BF90AF909F9010
:103780008F907F906F905F904F903F902F90089513
:1037900080925D0190925E01A0925F01B092600103
:1037A00063E1689F9001699F300D1124C20FD31F00
:1037B000F3018181833040F082E090E0FA0191834F
:1037C000808386EF9FEFD1CF2A012B813C81232B71
:1037D000F1F4288139819F8191FF2EC0232B09F4B8
:1037E0006FC02091F0039A81422F490F5527551F32
:1037F000BA0141E050E06138710514F050E040E05A
:10380000452B09F45DC02A87920F9093F0038150F5
:10381000823008F481C066DF882309F4D8C0F30140
:103820008181813009F48DC008F47BC0823009F4B5
:10383000C6C090E080E0ADC0232B09F441C02091C8
:10384000EF039A81E22FE90FFF27FF1F41E050E0CD
:10385000ED3FF10514F050E040E0452B89F12A8757
:10386000920F9093EF03D3CFA081B181A20FB31F2A
:1038700011966C91060F111D0196295F3F4F841719
:10388000950794F38D859E85089F1001099F300C44
:10389000189F300C1124C114D104D1F48F8184FFFE
:1038A00017C00E94FD24F5E02F0E311C21E0821587
:1038B000930508F420E0A701435F5F4F21110EC07C
:1038C00082E090E0F2019183808387EF9FEF4DCFFC
:1038D0000E94FD242FEF221A320AE8CF88819981B5
:1038E000E80EF91EF70114830383FFEFCF1ADF0AF6
:1038F0007A018A818C151D0409F00CF48CCFE881C3
:10390000F981EE0DFF1D428150E030E020E010E033
:1039100000E090E080E0B3CFF12CE12CD12CC12C61
:10392000E8CF81E090E09C838B83EADA882309F476
:1039300080CF81E090E00E94FB1380E40E94091494
:1039400078CF89899A89019661F083E090E09C8321
:103950008B8382E090E00E94FB1380E40E940314BA
:1039600068CF8D819E81209153013091540182173F
:103970009307D1F46091570170915801AE014F5EE9
:103980005F4F80915501909156010E9486270097C4
:10399000E1F2789422E030E0F20131832083892B38
:1039A00099F08DEF9FEFE1CE89288A288B2869F660
:1039B000029758F6CE0168DE188A1F86E8CF82E0AB
:1039C00090E09C838B8335CF90E080E0CECE82E088
:1039D00090E0F2019183808385EF9FEFC6CE8F92B6
:1039E0009F92AF92BF92CF92DF92EF92FF920F938E
:1039F0001F93CF93DF93EA018C01060F171FF80185
:103A00008181833098F082E090E09983888386EF0B
:103A10009FEFDF91CF911F910F91FF90EF90DF907B
:103A2000CF90BF90AF909F908F9008958091EB03BF
:103A30009091EC03892B61F081E090E02091ED03FF
:103A40003091EE03232B11F490E080E0892B39F4C0
:103A500082E090E0998388838EEF9FEFDACF42DE99
:103A6000882309F4E0C0F8018181813009F496C00F
:103A7000E8F0823099F42091ED033091EE03E0916B
:103A8000EB03F091EC0390E080E041E050E0281778
:103A9000390709F0BEC034DA811117C0789481E08B
:103AA00090E09983888390E080E0B3CF2091ED038C
:103AB0003091EE03E091EB03F091EC0390E080E0B5
:103AC00041E050E02817390741F481E090E00E947E
:103AD000FB1380E40E940914E1CF63817481672B9A
:103AE00011F05483438301967396ECCFE091EB037E
:103AF000F091EC03E00FF11F238134812230310576
:103B0000D9F4218932892F3F3F4FB1F42581368185
:103B100040915301509154012417350761F5AF01CD
:103B20004F5E5F4F60915701709158018091550130
:103B3000909156010E948627EFEFCE1ADE0AEE0A18
:103B4000FE0A0D5E1F4F4091ED035091EE0370E0B1
:103B500060E0C416D506E606F70644F5009731F294
:103B60007894892B09F49BCF82E090E09983888335
:103B70008DEF9FEF4ECFC114D104E104F104E1F6C3
:103B800022303105C8F6CF017FDDE091EB03F091E3
:103B9000EC03E00FF11F108A1786CECF10E000E093
:103BA00090E080E0C12CD12C7601CDCF0097C1F6FA
:103BB00010E000E0812C912C540183E0E82EF12CE0
:103BC0001AC0E091EB03F091EC03E00FF11F838149
:103BD0009481029749F4F482E38282E090E00E94AB
:103BE000FB1380E40E940314FFEF8F1A9F0AAF0AB1
:103BF000BF0A0D5E1F4F8091ED039091EE03B0E080
:103C0000A0E088169906AA06BB06DCF290E080E0E8
:103C1000A7CF638174816230710511F454834383AB
:103C20000196739634CF82E090E09983888385EF84
:103C30009FEFEFCE0097B9F48FEFFB0180832091C7
:103C40005D0130915E0143E1429FC001439F900DB1
:103C50001124E091EB03F091EC03E80FF91F82854A
:103C6000FB01818308950C94B11388E090E0FA0180
:103C70009183808390E080E008951092EA0310928F
:103C8000E903EBEEF3E086E0DF011D928A95E9F7A8
:103C900087EC99E19093E8038093E703089580917E
:103CA000E7039091E80308952F923F924F925F921D
:103CB0006F927F928F929F92AF92BF92CF92DF923C
:103CC000EF92FF920F931F93CF93DF93CDB7DEB7A1
:103CD0002F970FB6F894DEBF0FBECDBFF894E091DA
:103CE000E903F091EA033196F093EA03E093E903E4
:103CF00078944090EB035090EC034114510409F484
:103D00000CC2E091ED03F091EE03EF2B09F405C234
:103D10002D8749875A876B877C8798878F83120105
:103D2000B12CA12C10E000E08091ED039091EE0306
:103D3000A816B90618F40115110529F1F894809117
:103D4000E9039091EA0301979093EA038093E903D2
:103D50007894C8012F960FB6F894DEBF0FBECDBF82
:103D6000DF91CF911F910F91FF90EF90DF90CF9057
:103D7000BF90AF909F908F907F906F905F904F908B
:103D80003F902F9008957101E418F508D10117961E
:103D90008C91179781FD54C013968D919C91149727
:103DA000039709F04DC015968D919C91EF81F88590
:103DB0008E179F0709F044C0B50190E080E07ED4E3
:103DC0008A832091EB033091EC033D832C833D8566
:103DD000332309F44CC04C815D81452B09F49AC111
:103DE0008091ED039091EE03A816B90608F092C1F8
:103DF000C501D0D88823E9F06C817D816E0D7F1DCF
:103E00007D836C83DB011F968D919C91892B89F0BA
:103E1000D12CC12CF12CE12CAC81BD8112968C915E
:103E200012978E151F0409F094F450961C921E925E
:103E30001F972A81222321F0B50190E080E040D431
:103E40003FEFA31AB30A43E1240E311C6DCFAC81BE
:103E5000BD81ED91FC91EC0DFD1D858196810BD707
:103E6000BFEFEB1AFB0AEDE0CE0ED11CD5CFEC81F3
:103E7000FD81309709F44EC18091ED039091EE03DE
:103E8000A816B90608F046C1EE0DFF1DFF87EE87A4
:103E9000C50180D88B83882339F1AE85BF851F96F5
:103EA0008D919C915097019621E01D964D915C91CA
:103EB0008417950709F020E02E831982712C10E0F9
:103EC00000E0AE85BF8512968C91781608F45DC02F
:103ED000EE85FF85878590890196658576850E94A8
:103EE000F133908B8787A5CFB1E0BE83E6CF9924CD
:103EF00093946BC087D6F6019683858382C0D601E2
:103F0000ED90FC90B7E06B9EE00CF11C1124F701E2
:103F10006381748180818F3F61F121E030E002C0D4
:103F2000220F331F8A95E2F7C901092E000CAA0B54
:103F3000BB0BFB01408151816281738184239523F6
:103F4000A623B72321E0892B8A2B8B2B09F420E0B1
:103F5000D4012C93D70111968C91F60123853485D9
:103F6000820F932F911D880E991E148613866394D9
:103F70009BC0418150E0C4010E944634EBCF99823E
:103F800006EF1FEFC5C01982C3C0F981F111A0CFA0
:103F9000EDE07E9E70011124AE85BF85CD90DC9052
:103FA000CE0CDF1C13D49D838C83BB81BB2309F40F
:103FB0009ECF81E0EE85FF8527853089232B09F090
:103FC00080E0982E882309F458C0672D8E859F8540
:103FD00005D8D60118969C938E93179761E070E0F0
:103FE000BED4EE85FF85218932892F3F320709F43F
:103FF00081CFBC01C901CBD7D60116969C938E9375
:104000001597D60115968D919C911697009709F4F6
:10401000B6CFEC81FD818E0F9F1F1A969C938E93D5
:104020001997AE85BF85ED91FC911197EE0EFF1E9D
:10403000F70121853285148613861A968C91870D97
:10404000D9018D93711016C0EE85FF85878184FF9D
:1040500011C049855A856B857C85F901418352835E
:1040600063837483F701838594850496A80FB91F31
:1040700014861386F701B287A187D60115968D9114
:104080009C911697892B09F443C0EE85FF85258105
:10409000368180915301909154012817390779F0A6
:1040A00019968D909C90612CD60112968C91129746
:1040B000681608F424CF1A969C928E921997BE81A6
:1040C000BB2309F460CF61E070E0F6018781908541
:1040D00046D4D6011796ED90FC90189715964D9101
:1040E0005C91E1E0F0E0BA81BB2311F0F0E0E0E0A8
:1040F0000C811D819C01B501882799278E1B9F0B80
:1041000068D38C01892B21F0F60185819681B3D586
:104110007394D7CE0FEF1FEF8CCE10E000E00ECEE1
:104120002F923F924F925F926F927F928F929F92C7
:10413000AF92BF92CF92DF92EF92FF920F931F93B5
:10414000CF93DF938091EB039091EC0310E000E0BC
:10415000892BA9F0C7DA0AEF1FEF882381F020909E
:10416000ED033090EE03C091EB03D091EC03D12C22
:10417000C12C10E000E02C143D04A9F47894C8018F
:10418000DF91CF911F910F91FF90EF90DF90CF9033
:10419000BF90AF909F908F907F906F905F904F9067
:1041A0003F902F900895C6010E94CA17882309F1F5
:1041B0008B819C810397E9F48F859889892BC9F0BD
:1041C000B60190E080E07AD221E030E0882311F05F
:1041D00030E020E044245524421A530AB12CA12C8B
:1041E000912C812C8A818815190409F038F4188AD9
:1041F0001F864FEFC41AD40A6396BDCFE881F981B8
:10420000EA0DFB1D85819681892BA1F161E070E0AB
:1042100087819085A4D33C01D9D28C01E881F981B2
:10422000EA0DFB1D8185928525813681200F311F86
:10423000AC01421B530B9A0147815085421B530B23
:1042400070E060E00E944F34E881F981EA0DFB1DC7
:10425000E780F084458156819301B601C201B9D24D
:104260008C01892B39F0E881F981EA0DFB1D8581EC
:10427000968101D55FEF851A950A8DE0A80EB11CD5
:10428000B1CF30CA789408952F923F924F925F92A7
:104290006F927F929F92AF92BF92CF92DF92EF92F6
:1042A000FF920F931F93CF93DF9300D000D000D0E5
:1042B000CDB7DEB70091EB031091EC0399249394F2
:1042C0000115110509F43EC0A090ED03B090EE0376
:1042D00009DA982E8823B1F11092EC031092EB03C7
:1042E0001092EE031092ED031092EF031092F00380
:1042F0008FEF9FEFDC0180935D0190935E01A093AF
:104300005F01B093600178947AD31E830D83C12C32
:10431000D12C7601C501B0E0A0E089839A83AB83FC
:10432000BC8322242A94322C89819A81AB81BC815E
:10433000C816D906EA06FB06F4F0C8019CD480E44E
:104340000E940914892D26960FB6F894DEBF0FBE81
:10435000CDBFDF91CF911F910F91FF90EF90DF9034
:10436000CF90BF90AF909F907F906F905F904F9055
:104370003F902F900895AD81BE8115968D919C91AF
:104380001697209153013091540182179307D1F46D
:1043900051968D919C91E9D5ED81FE81808191812D
:1043A000B12CA12C412C512C3201892B89F5BFEF66
:1043B000CB1ADB0AEB0AFB0AED81FE817396FE83C2
:1043C000ED83B2CFC114D104E104F10429F70297BF
:1043D00018F7ED81FE81818992898F3F980709F056
:1043E00024D5AD81BE8152963C922E925197D4CF66
:1043F0008A0D9B1DDC018D919C91009709F03BD4A7
:10440000BFEF4B1A5B0A6B0A7B0AEDE0AE0EB11CE4
:10441000AD81BE818D919C91119712964C9150E087
:1044200070E060E044165506660677060CF323D468
:10443000BECFCF93DF93EA0127DF811109C082E06D
:1044400090E09983888385EF9FEFDF91CF91089566
:1044500081E090E00E94FB1381E090E099838883E3
:1044600090E080E0F2CF10DF1092E8031092E703B3
:10447000089542E050E068EF71E00C941914FF9247
:104480000F931F93CF93DF938A01EC01C60FD71FC1
:10449000F980B4D20897F816190671F068F082E036
:1044A00090E0F801918380838EEF9FEFDF91CF91B1
:1044B0001F910F91FF9008956C817D818E819F8166
:1044C0004B810E94B016811108C082E090E0F80193
:1044D0009183808384EF9FEFE9CFF9800E94AB1630
:1044E0004F2D50E0BE01685F7F4F0E9446348981A6
:1044F0000E941A1781E090E0F8019183808390E098
:1045000080E0D4CFDF92EF92FF920F931F93CF936F
:10451000DF938A01EC01C60FD71F0E94AB167C0106
:10452000D9806CD2DD2059F0029721E030E0D81616
:10453000190619F010F030E020E0232B79F482E026
:1045400090E0F801918380838EEF9FEFDF91CF9110
:104550001F910F91FF90EF90DF900895EF2841F4A5
:1045600082E090E0F8019183808384EF9FEFEECFAB
:10457000F9800E94AB164F2D50E0BE016E5F7F4F59
:104580000E94463489810E941A1781E090E0F80168
:104590009183808390E080E0D9CF89E392E2909389
:1045A000F2038093F10308958091F1039091F20357
:1045B00008950895FC0111821082938382830895E7
:1045C000DB011D921C92DC011296ED91FC91139778
:1045D0007183608313967C936E9312970895FC0108
:1045E00080819181DB018D939C93A081B181109793
:1045F00041F08D919C9191838083892B11F4F383F9
:10460000E2830895FC0180819181DB018D939C936D
:10461000892B11F473836283718360830895FC0195
:1046200011821082938382830895CF93DF9300D009
:10463000CDB7DEB71A821982F894BE016F5F7F4F43
:1046400088EF93E0CCDF89819A81009709F013D33A
:1046500089819A81892B89F7BE016F5F7F4F8CEF2B
:1046600093E0BDDF89819A81009709F004D38981A5
:104670009A81892B89F778940F900F90DF91CF91D1
:104680000895CF93DF9300D0CDB7DEB71A82198299
:10469000F894BE016F5F7F4F84EF93E0A0DF8981C4
:1046A0009A81009709F0E7D289819A81892B89F74D
:1046B00078940F900F90DF91CF91089581E0089545
:1046C00090E080E00895EF92FF920F931F93CF93B5
:1046D000DF9300D0CDB7DEB71A8219828091F30341
:1046E00007EF1FEF8823A1F1F894BE016F5F7F4FA2
:1046F0008CEF93E074DF789489819A81EE24E394BF
:10470000F12C892B51F4F894BE016F5F7F4F88EF35
:1047100093E065DF7894F12CE12C89819A810EEF8A
:104720001FEF0097A9F0FC014281538164E070E023
:1047300070D68C01892B61F0F89469817A81C70168
:10474000880F991F880F991F88509C4F5BDF7894C2
:10475000C8010F900F90DF91CF911F910F91FF90A3
:10476000EF9008950F931F93CF93DF9300D000D065
:10477000CDB7DEB71C821B821A8219828091F303A7
:1047800007EF1FEF8823C1F0AE014D5F5F4F64E07C
:1047900070E0CE010196B0D68C01892B69F4E981D5
:1047A000FA818B819C8193838283F89469817A81D9
:1047B00084EF93E005DF7894C8010F900F900F907D
:1047C0000F90DF91CF911F910F910895B5D7049667
:1047D00008958F929F92AF92BF92CF92DF92EF9205
:1047E000FF920F931F93CF93DF9300D0CDB7DEB727
:1047F0001A821982BC016F5F7F4F6330710598F098
:10480000AA24AA94BA2CC5010F900F90DF91CF91E2
:104810001F910F91FF90EF90DF90CF90BF90AF90DE
:104820009F908F9008954115510551F3480159010A
:104830008A016C01CBDF8815990511F7E114F104A9
:10484000F9F28E0D9F1DA816B906D0F28091F303E0
:104850008823F1F0F894B501645071099701AE0115
:104860004F5F5F4FC8010496DCD65C01892B71F461
:1048700089819A81F80193838283C601880F991FE9
:10488000880F991FB80188509C4F9ADE7894BBCF4F
:1048900087EFA82EBB24BA94B6CFAF92BF92CF9227
:1048A000DF92EF92FF920F931F93CF93DF9300D08D
:1048B000CDB7DEB71A821982892B09F047C061157E
:1048C000710509F443C04115510509F43FC0211594
:1048D000310509F43BC001151105C1F18091F303C5
:1048E0008823B9F179016A015B01F894BE016F5F19
:1048F0007F4F84EF93E073DE789489819A810097EB
:1049000059F1DC0112966D917C91A8010496A2D612
:104910008C01E981FA81D501ED93FC938281938129
:104920000496F6019183808351DFD7018D939C9388
:10493000C8010F900F90DF91CF911F910F91FF90C1
:10494000EF90DF90CF90BF90AF9008950FEF1FEFE3
:10495000EFCF07EF1FEFECCF0EEF1FEFE9CFCF93B5
:10496000DF93EC01672B71F4F0D68C179D0760F094
:10497000E3D62496C80FD91FE2D68C0F9D1FDF9176
:10498000CF910895DFD6F1CF90E080E0F8CF0F937C
:104990001F93CF93DF932091F30321112BC08B0141
:1049A000EC0188EF93E006DE8CEF93E003DE84EF0A
:1049B00093E000DE97D00097C1F4C7D670E060E0C6
:1049C000CEDF41E651E062E070E081D1009769F40A
:1049D0008091610190916201CAD6B801CE01FFD4E5
:1049E000009719F421E02093F303DF91CF911F91F9
:1049F0000F91089584EF9FEFF8CFA4C6A6C6CF937A
:104A0000DF93A6D6EC01892B11F40FDE3ADECE013E
:104A1000DF91CF910895CF93DF939AD6EC01892B44
:104A200009F403DECE01DF91CF91089580916101F9
:104A3000909162010895CF93DF938091F303D0E0CA
:104A4000C0E08823D1F098D6EC01892BB1F4EDDDDC
:104A500018DE8091610190916201E7D1E8D2EC010A
:104A6000892B59F488EF93E0DADD8CEF93E0D7DD02
:104A700084EF93E0D4DD1092F303CE01DF91CF9168
:104A80000895EF92FF920F931F93CF93DF93EC0162
:104A90007A018B010F5F1F4F0E9DA0010F9D500DDE
:104AA0001E9D500D112470E060E00E944F3490E094
:104AB00080E0F0E0E0E02FEFE816F90639F4DF914E
:104AC000CF911F910F91FF90EF9008951A82198254
:104AD0002883309711F0D283C1830196FE01C00F65
:104AE000D11FEACFCF92DF92EF92FF920F931F93E5
:104AF000CF93DF930CE115E00C7F43E050E063E6D9
:104B000071E089E691E018D483E6E82E81E0F82E82
:104B100099E6C92E91E0D92ECBE9D5E0D7014D9188
:104B20005D917D01F601619171916F011983088397
:104B30005D834C835B834A837F836E839B012F5FFE
:104B40003F4F249FC001259F900D349F900D11244D
:104B5000998788870115110511F0C80192DF8885B2
:104B60009985080F191F2A96F9E6EF16F1E0FF065E
:104B7000A9F6E2E0F4E087E191E0DF019C011D92FB
:104B800021503040E1F7109201041092000410927D
:104B9000BA051092B9051092BE051092BD0510928B
:104BA000BC051092BB051092C0051092BF05109273
:104BB000C2051092C1051092C4051092C30510924F
:104BC000C8051092C7051092C6051092C50510922F
:104BD000CA051092C9051092CC051092CB0510920F
:104BE00098051092970510929A051092990590E0F9
:104BF00080E0DF91CF911F910F91FF90EF90DF90B8
:104C0000CF9008950097F1F0F894A9E6B1E0EBE9B0
:104C1000F5E030E020E04D915D9148175907A8F08C
:104C2000428153814115510581F08AE0829FF00154
:104C3000839FF00D1124E556FA4F808191810097F2
:104C400059F4789490E080E008952F5F3F4F3A96B2
:104C50002330310501F7F5CFDC0111966D917C9180
:104C6000718360834150510953834283FC01219336
:104C7000CF0178940895009749F1DC018E91853039
:104C800041F4E0919905F0919A053097F9F0CD0142
:104C900009948530D8F4282F30E0F8948FEF8C9366
:104CA0008AE0829FF001839FF00D1124E556FA4FB0
:104CB0008081918112969C938E931197B183A083EA
:104CC0008281938101969383828378940895CF9211
:104CD000DF92EF92FF920F931F93CF93DF939C018C
:104CE00085E094E08C7F4115510509F49BC02115A6
:104CF000310509F497C06115710509F493C07A0173
:104D0000AB01B9016D5F7F4F6C7F9B012F5F3F4F00
:104D1000249F8001259F100D349F100D1124F894BD
:104D20002091B9053091BA05232B59F42091C10582
:104D30003091C2052115310569F12017310708F0BE
:104D400058C02091C3053091C405232B91F42091C4
:104D5000C1053091C205820F931F2091CB05309180
:104D6000CC052115310509F441C02017310708F0A1
:104D700056C07894CFEFDFEF86EF9FEFF701D18336
:104D8000C083DF91CF911F910F91FF90EF90DF9043
:104D9000CF900895C3E0D0E0C0900004D09001040B
:104DA00024E131E02C193D092017310710F32AE0E6
:104DB0002C9FF0012D9FF00D1124E556FA4F9183A1
:104DC000808355834483538342837783668311872B
:104DD0000087009709F055DE0C0D1D1D109301048E
:104DE00000930004789490E080E0C8CFC4E0D0E065
:104DF000D3CFC3E0D0E02AE02C9FF0012D9FF00D2F
:104E00001124E556FA4F918380835583448353835D
:104E1000428377836683009729F333DEE3CFC4E0D0
:104E2000D0E0E9CF8FEF9FEFACCF9C0103970297C3
:104E300008F069C0F89484E09AE0482F50E0241705
:104E400035070CF44DC091E08AE0829FF001839F0A
:104E5000F00D1124E556FA4F11821082158214824A
:104E600013821282178216829923B1F18091B905BB
:104E70009091BA05892BA9F42091C1053091C20502
:104E80002115310571F08091000490910104821B7D
:104E9000930B90930104809300041092C20510922A
:104EA000C1058091C3059091C405892BA9F4209177
:104EB000CB053091CC052115310571F080910004AE
:104EC00090910104821B930B909301048093000442
:104ED0001092CC051092CB05789490E080E0089574
:104EE000949FF001959FF00D1124E556FA4F4081F3
:104EF0005181452B31F440855185452B11F481506A
:104F00009CCF90E0A1CF8FEF9FEF08954115510501
:104F100049F1009739F16115710521F1F89420915B
:104F2000970530919805232BB9F42091990530917C
:104F30009A05232B89F49093980580939705709395
:104F40009A0560939905789425E030E090E080E040
:104F5000FA0131832083089578942FEF3FEF86EF95
:104F60009FEFF6CF8FEF9FEF0895059769F4F894C0
:104F7000109298051092970510929A051092990533
:104F8000789490E080E008958FEF9FEF0895611589
:104F9000710519F4F0E0E0E011C08530910581F46D
:104FA000E0919705F09198053097A1F3CB01019618
:104FB0000995009779F3FC0185E08193CF0108956D
:104FC0009C01235031092230310520F72AE0289F27
:104FD000D001299FB00D1124A556BA4F2D913C91B7
:104FE0001197232BB9F216962D913C9117972617FE
:104FF000370780F2F89412962D913C911397211562
:10500000310529F0ED91FC911197309711F47894C6
:10501000C1CF4181528111965C934E932150310949
:1050200013963C932E93129781937894C7CFE9E11E
:10503000F5E08EE7DF011D928A95E9F7E2E0F4E002
:1050400087E191E0DF019C011D9221503040E1F7A2
:105050001092010410920004EBE9F5E082E3DF0115
:105060001D928A95E9F7E7E9F5E084E0DF011D92FA
:105070008A95E9F790E080E00895CF93DF93C0919F
:105080006F01D0917001CF3FDC0759F441D4909368
:10509000700180936F0197FF09C0D0937001C09396
:1050A0006F0184EF9FEFDF91CF91089590E080E052
:1050B000FACF8230910528F48093CD0590E080E00E
:1050C00008958FEF9FEF08954F925F926F927F92B6
:1050D000AF92BF92CF92DF92EF92FF920F931F9306
:1050E000CF93DF9300D0CDB7DEB71A821982009735
:1050F00009F478C06115710509F474C020916F013D
:105100003091700107EF1FEF2F3F3F4F09F444C06C
:105110006B015C01412C512C3201F12CE12C10E08F
:1051200000E09E012F5F3F4FA6014E195F09B501B8
:105130006E0D7F1D80916F019091700148D4892B75
:1051400009F04AC089819A81009741F4E114F10481
:1051500029F42091CD05222309F441C0E80EF91E5F
:10516000EC14FD04C8F480E8481684E858068EE183
:105170006806710418F560E070E0CB01DDD72AE025
:10518000420E511C611C711C0A3F4FEF140721F0A5
:10519000043F8FEF1807A1F4C8010F900F90DF9123
:1051A000CF911F910F91FF90EF90DF90CF90BF9024
:1051B000AF907F906F905F904F90089501EF1FEF39
:1051C00081E090E0013F2FEF120711F090E080E0C6
:1051D000892B09F4A6CFE0CF04EF1FEFDDCF0AEF54
:1051E0001FEFDACF0FEF1FEFD7CF4F925F926F9283
:1051F0007F92AF92BF92CF92DF92EF92FF920F9386
:105200001F93CF93DF9300D0CDB7DEB71A821982F8
:10521000009709F478C06115710509F474C02091F4
:105220006F013091700107EF1FEF2F3F3F4F09F4DF
:1052300044C06B015C01412C512C3201F12CE12C5A
:1052400010E000E09E012F5F3F4FA6014E195F095D
:10525000B5016E0D7F1D80916F01909170016DD32E
:10526000892B09F04AC089819A81009741F4E114A1
:10527000F10429F42091CD05222309F441C0E80E60
:10528000F91EEC14FD04C8F480E4481682E45806C4
:105290008FE06806710418F560E070E0CB014CD730
:1052A0002AE0420E511C611C711C0E3F4FEF140787
:1052B00021F0043F8FEF1807A1F4C8010F900F9061
:1052C000DF91CF911F910F91FF90EF90DF90CF90E2
:1052D000BF90AF907F906F905F904F90089502EFD6
:1052E0001FEF81E090E0023F2FEF120711F090E0F6
:1052F00080E0892B09F4A6CFE0CF04EF1FEFDDCFCC
:105300000EEF1FEFDACF0FEF1FEFD7CF80916F01B6
:10531000909170018F3F980749F0F2D2892B49F4A0
:105320008FEF9FEF9093700180936F0190E080E08A
:10533000089584EF9FEF0895CF92DF92EF92FF924E
:105340000F931F93CF93DF9321E04115510509F08F
:1053500020E04150510921112CC0DC01FB01D12C6E
:10536000C12C21E022C03FEFC31AD30A7D010D9169
:105370001D91E701EA80FB80E016F106A8F4208188
:105380003181E280F380F182E08233832283ED90E9
:10539000FC9011979D0122503109E901F982E882C0
:1053A00011961C930E9320E03296C416D506D8F2BF
:1053B000D2CFDF91CF911F910F91FF90EF90DF90AF
:1053C000CF900895FC01680F791F90E080E0E61708
:1053D000F70709F408952191820F911DF8CF2091CC
:1053E000CE05211113C049DE009791F41092D40527
:1053F0001092D3051092D2051092D1051092D005CB
:105400001092CF0521E02093CE05089584EF9FEF01
:105410000895AF92BF92CF92DF92EF92FF920F93D7
:105420001F93CF93DF93009709F460C04630510576
:1054300008F45CC02091CE05C7EFDFEF222309F40A
:1054400049C08C01060F171FF801C080D180C1141C
:10545000D10409F44EC096012A5F3F4F421753070B
:1054600008F447C07C018091D3059091D4059383C3
:105470008283B6016C5F7F4F5801A60EB71EC8012C
:10548000A1DFF5019183808364E070E0C8011CDE38
:10549000EC01892BF9F481E090E00BDEB601C80144
:1054A000049612DEEC01892B91F462E070E0C501F4
:1054B0000BDEEC01892B59F4C701DDDB8091D305AC
:1054C0009091D40501969093D4058093D30590E0F4
:1054D00080E0EFDDCE01DF91CF911F910F91FF9022
:1054E000EF90DF90CF90BF90AF900895CFEFDFEFB8
:1054F000F1CFC9EFDFEFEECF6F927F928F929F9245
:10550000AF92BF92CF92DF92EF92FF920F931F93D1
:10551000CF93DF9300D000D0CDB7DEB7009709F46A
:105520007AC04115510509F476C02091CE0507EFE8
:105530001FEF222309F44DC03A017B015C0164E0B6
:1055400070E0CE01019651DE8C01892B09F041C03B
:1055500009811A810115110509F45AC0480186E034
:10556000880E911CB701680D791D80917101909191
:1055700072010DDD6C01009709F450C0A70170E0C5
:1055800060E00E944F3489819A81AB81BC81EC0C30
:10559000FD1CF70181939193A193B1937F0181E069
:1055A00090E087DDB801C70120DE892B31F562E08C
:1055B00070E0C701800F911F18DE8C01892BE9F480
:1055C00090E080E076DDF501D182C082F301918226
:1055D0008082C8010F900F900F900F90DF91CF91B4
:1055E0001F910F91FF90EF90DF90CF90BF90AF9001
:1055F0009F908F907F906F90089590E080E059DDAC
:10560000F50111821082F30111821082C60133DB91
:1056100009EF1FEFDECF0FEF1FEFDBCF06EF1FEF1E
:10562000D8CF0097A1F04115510589F0211531051A
:1056300071F0F90136966E177F0748F0DC012D9363
:105640003C93DA01ED93FC9390E080E008958FEFB6
:105650009FEF0895AF92BF92CF92DF92EF92FF92A9
:105660000F931F93CF93DF93009709F45FC0411509
:10567000510509F45BC06530710508F457C02091ED
:10568000CE05C7EFDFEF222391F1DC01CD90DC9056
:1056900011971296ED91FC9196012A5F3F4FC9EF49
:1056A000DFEF2617370719F5C091CF05D091D00548
:1056B000209749F521E030E03093D0052093CF05C5
:1056C0007A018C01F093D205E093D1055601B4E044
:1056D000AB0EB11CB50176DE0A0D1B1DF801208151
:1056E00031818217930729F5D701CD92DC92CE0143
:1056F000DF91CF911F910F91FF90EF90DF90CF90AE
:10570000BF90AF9008952091D1053091D2052F5FC1
:105710003F4FCCEFDFEFE217F30790F2CBEFDFEF75
:105720002E173F0768F2D0E0C0E0CACFCFEFDFEF1F
:10573000DECFC3EFDFEFDBCF84E090E0089582E0BF
:1057400090E008958CEF9FEF089580E290E0089537
:105750001092D4051092D3051092D2051092D10563
:105760001092D0051092CF0590E080E008959093BC
:1057700072018093710108958091CE05882391F084
:10578000C5DD009789F41092D4051092D3051092CC
:10579000D2051092D1051092D0051092CF0510922B
:1057A000CE05089590E080E00895009749F06115D6
:1057B000710531F0FC0111821082FB01118210820F
:1057C0000895F3CF26E030E040E855E260E070E075
:1057D00090E080E000C01092D6051092D505893087
:1057E0009105E8F48950944DFC010C942734002C69
:1057F000092C102C132C162C192C1C2C1F2C252C8E
:1058000081E090E09093D6058093D50584EE95E0F5
:10581000D6C682E090E09093D6058093D505089592
:1058200084E090E0F8CF88E090E0F5CF80E190E070
:10583000F2CF80E290E0EFCF80E490E0ECCF80E820
:1058400090E09093D6058093D5058091D5059091F1
:10585000D6059160E0CF1F920F920FB60F921124E0
:105860002F933F934F935F936F937F938F939F9368
:10587000AF93BF93EF93FF9386E09FEF90938500E4
:1058800080938400B7D0FF91EF91BF91AF919F912A
:105890008F917F916F915F914F913F912F910F90D9
:1058A0000FBE0F901F90189586E09FEF9093850094
:1058B00080938400AFE6B0E08C918E7F8C93E0E81B
:1058C000F0E080818C7F8083E1E8F0E08081877E5A
:1058D000808380818360808380818B7F80838C91B3
:1058E00081608C930895EFE6F0E0808190819E7F47
:1058F00090838170089581E008951092D7050895EE
:1059000068EE73E080E090E017D490E080E00895C6
:1059100026E030E040E052EC61E070E090E080E0B2
:105920005ADF84EE95E081D5892B21F084EE95E055
:1059300096D5F7CF90E080E00895CF92DF92EF9276
:10594000FF920F931F93CF93DF936B017A01E901CD
:105950001982188284EE95E068D5892B69F1860159
:10596000CC24C39482E0D82E8091D705811110C039
:1059700084EE95E074D50297B9F7C092D705F80187
:10598000D1928F0188819981019699838883ECCF88
:10599000888199818E159F0578F484EE95E05FD516
:1059A0008F3F9807A9F3F80181938F01888199812E
:1059B000019699838883ECCF90E080E0DF91CF91CE
:1059C0001F910F91FF90EF90DF90CF9008950F936C
:1059D0001F93CF93DF93EA01890184EE95E0D3D63C
:1059E000F801D183C08390E080E0DF91CF911F91D7
:1059F0000F9108958091D80591E0980F9093D80564
:105A0000882349F021E030E03093DA052093D9056E
:105A10008093D805089578940E942605F894809183
:105A2000D8058150F5CF0F931F93CF93DF9310923A
:105A30000B0710920A07B6D3C5DEC0917E01D09144
:105A40007F01198218826FEF7FEFCB010E940A0558
:105A500070E060E090E080E00E948403009709F02D
:105A600042C00E943B0BF89478948A819B81BC01D0
:105A7000685F7F4F0E948703892B71F46FEF7FEF80
:105A8000CB010E9419040E940405882329F081E0BB
:105A9000FE01E452FF4F8083F89406DF0E94070561
:105AA000882311F080E00BC00E9404058111FACF19
:105AB00081E0FE01E452FF4F90819111F3CF80937A
:105AC0000A0778940E94F6138C017894C452DF4F31
:105AD00080910A0781110CC00E94EE0C0E94E8041C
